:020000040801F1
:1000000000040020C1010108F1020108F102010809
:10001000F1020108F1020108F1020108F1020108F0
:10002000F1020108F1020108F102010821030108AF
:10003000F1020108F1020108F1020108210401089E
:10004000F1020108F1020108F1020108F1020108C0
:10005000F1020108F1020108F1020108F1020108B0
:10006000F1020108F1020108F1020108011F010873
:10007000311F0108611F0108911F0108C11F0108FC
:10008000F11F01082120010871260108F102010871
:10009000F1020108F1020108F1020108F102010870
:1000A000B13D0108313C0108F1020108613C010841
:1000B000C13C0108E13C0108013D0108A12B0108F8
:1000C000C12C0108F1020108F1020108F102010846
:1000D000F10201085143010871430108F1020108CE
:1000E000F1020108F1020108F1020108F102010820
:1000F000213D0108F1020108513D0108512001088C
:10010000F1020108F1020108F1020108F1020108FF
:10011000F1020108F1020108F1020108F1020108EF
:1001200081200108B1200108E12001081121010806
:1001300041210108F1020108F1020108F102010860
:10014000F1020108F1020108F1020108213501085C
:1001500071210108A1210108D1210108F102010842
:10016000F1020108F1020108F1020108F10201089F
:10017000F1020108F1020108F1020108F10201088F
:08018000F1020108F10201087F
:1001900009480A4908B505F0DBF8002004F0D0FA58
:1001A000002004F0FDFA012004F0FAFA4FF47A700E
:1001B00000F05EFCF4E700BFD81C0020B059010835
:1001C00072B6384880F30988374B38491A684FF0BF
:1001D000404442F470021A600C600023E1EE103AD1
:1001E000334B00221A60062383F31488BFF36F8F0A
:1001F000304B314A93420BD2D943114421F00301D1
:1002000019444FF05532043B43F8042F8B42FBD185
:100210002A4B83420CD22A491A1D891A21F0030164
:1002200019444FF05532043B43F8042F8B42FBD165
:1002300004F02EF92349244B99420BD2C8431844A9
:1002400020F00300214C04300023E258CA5004334C
:100250008342FAD11E4B1F4A93420AD2D94311441A
:1002600021F0030119440022043B43F8042F8B4280
:10027000FBD1194D194C04F0F3FAAC4204D254F8F6
:10028000043B9847AC42FAD3154D164CFFF780FF5C
:10029000AC4204D254F8043B9847AC42FAD304F081
:1002A00097FA00BF0008002088ED00E034EF00E07E
:1002B0003CEF00E0000000200004002000040020CB
:1002C000030800200008002074080020C05901081D
:1002D000780800203C2100208801010888010108DD
:1002E0008801010888010108AFF30080AFF30080A6
:1002F000FEE700BFAFF30080AFF30080AFF30080F4
:1003000072B6FEE7AFF30080AFF30080AFF300807A
:1003100000F0F6FA00DF00BFAFF30080AFF300801B
:10032000EFF30982064BD2F8CC1059609968683116
:100330006832996082F30988002383F3118870473B
:1003400030EF00E0AFF30080AFF30080AFF3008048
:1003500008B50A4B0A4A4FF4803199600720DA60E9
:10036000102100F0D5F80A20202100F0D1F80B2050
:100370008021BDE8084000F0CBB800BF00ED00E0F0
:100380000003FA05AFF30080AFF30080AFF3008005
:10039000202383F311881A4B5B6813F4006321D088
:1003A000EFF30983A3F1680282F3098815494FF03E
:1003B00080708A6943F84C0CD07F0968926889681C
:1003C00098B1914294BF00220122A2B10E4A43F893
:1003D000502CF1EE10FA0D4A5168596641F00101B6
:1003E0005160704783F311887047914234BF0022F7
:1003F0000122002AEAD1064A43F8502CEBE700BF5D
:1004000000ED00E0180A00201103010830EF00E0C1
:1004100014030108AFF30080AFF30080AFF3008056
:1004200008B5202383F3118800F0D2F8002383F36A
:100430001188BDE80840FFF7ABBF00BFAFF30080F5
:100440002DE9F04F2DED108AC1F80CD0D0F80CD06A
:10045000BDEC108ABDE8F08FAFF30080AFF30080F1
:10046000002383F311882846A04700F031FB704732
:1004700020F0030202F1604202F56142F0B4430948
:1004800000F00304D2F80053E400FF269B00A640CE
:1004900003F1604325EA060503F561430127A14006
:1004A00000F01F0007FA00F045EA0104C2F800431B
:1004B000C3F88001F0BC1860704700BFAFF3008044
:1004C000410930B4203100F01F0401250C4A20F00E
:1004D000030305FA04F403F1604342F8214003F5F5
:1004E000614300F00300D3F80023C000FF2101FAAC
:1004F00000F022EA0000C3F8000330BC704700BFE0
:1005000000E100E0AFF30080AFF30080AFF30080C4
:1005100020F0030303F1604303F56D4300F0030093
:1005200010B4C0009A69FF24844022EA040281408A
:100530000A439A615DF8044B704700BFAFF3008037
:10054000024B034A9B699A61FEE700BF180A00202C
:1005500020540108AFF30080AFF30080AFF30080B8
:1005600000B583B0FFF7F4FE00F0E2F800F060F8A9
:1005700000F086FD00F0BCFD40210D4800F0D0F9F0
:100580000C4A012303779061002383F3118862B63C
:100590001346094A9B6909489A61002300934FF466
:1005A000A4710122064B00F01BFA03B05DF804FBB6
:1005B00078080020180A002030540108C0080020E4
:1005C00041050108AFF30080AFF30080AFF3008076
:1005D00070B5144B9B69DA7F0AB1013ADA771A6A6F
:1005E000114901321A62CB680A6801338A42CB6032
:1005F00016D09668013E966096B90D461068D4688C
:100600000860D6600023416083F311881069A04719
:10061000202383F311882A6803499368002BEDD0C7
:1006200070BD00BF180A0020080A0020AFF3008048
:10063000044B4FF0FF3100225B601B609960DA6071
:10064000704700BF080A0020AFF30080AFF30080BE
:1006500070B40C4E3468A5680361A942C26004D925
:100660002468491BA5688D42FAD363684360B4428D
:10067000046060601860816002D0A368591AA160AC
:1006800070BC7047080A0020AFF30080AFF3008011
:10069000074A0368934203D0996882680A449A60C3
:1006A00042681360036800215A60C160704700BF50
:1006B000080A0020AFF30080AFF30080AFF30080A2
:1006C00010B4202383F31188037F0D2B11D8DFE8AA
:1006D00003F026101007100B101010101010100B44
:1006E000436A9A6801329A6090E80C001A600268C6
:1006F00053604FF0FF34002381680C4A4462037753
:10070000126893688B42FBD25168416002600023FB
:100710005060086083F311885DF8044B7047002334
:1007200083F311885DF8044B704700BF180A00205E
:10073000034B00225B601B605B611B619A6070472A
:10074000180A0020AFF30080AFF30080AFF3008001
:1007500000228168084B10B4044602771B689A682F
:100760008A42FBD25A686260236020465C60146053
:100770005DF8044B704700BF180A0020AFF30080FB
:10078000084B30B41A689969146808770125142059
:10079000C877636015771C60104630BC9A61FFF71C
:1007A0004FBE00BF180A0020AFF30080AFF30080F7
:1007B00030B54B1C87B0054611D00C4C0C4AA369D0
:1007C00001A8FFF745FF2846FFF7DAFF049B13B1A6
:1007D00001A8FFF75DFFA369586A07B030BD034C5D
:1007E000FFF7CEFFA369586A07B030BD180A002092
:1007F000C1060108AFF30080AFF30080AFF30080C3
:10080000DFF858C0F0B4DCF818708568BC68416245
:10081000A54206460DD80022634602771B689A68F7
:100820009542FBD95A68726033605E601660F0BC16
:10083000704700233B7763461B689A689442FBD954
:100840005A687A6001243B605F60176034773946EC
:100850003046CCF81860F0BCFFF7F2BD180A002053
:100860000E4A1068F0B403689569136001271426D6
:100870000021AC685A60077703469061EE772977CC
:1008800000E01B689A68A242FBD25A686A602B603B
:1008900029465D601560F0BCFFF7D2BD180A002044
:1008A0000D4A106870B40368956913600126002131
:1008B000AC685A60067703469061297700E01B68B0
:1008C0009A68A242FBD85A686A602B6029465D602C
:1008D000156070BCFFF7B4BD180A0020AFF30080AC
:1008E000044B1A689B6992689B689A4200D87047CB
:1008F000FFF7D6BF180A0020AFF30080AFF30080E7
:10090000034B9B69DB7F0BB1FFF7CABFFFF7A8BFA3
:10091000180A0020AFF30080AFF30080AFF300802F
:100920002DE9F003114C016465694561002200F175
:100930002C064FF002094FF0140800F128074FF081
:10094000010C0461816080F81C90606180F81F8058
:1009500080F81EC04277C2638263026282612861AE
:1009600087620663C662BDE8F0037047180A00207C
:100970002DE9F00F174D089E6F69DFF85CC06439F0
:100980000144C1604FF0020B0B644E64002300F180
:100990002C064FF0140A4FF0010900F12808C1F8A5
:1009A00060C005614761826080F81CB080F81FA0BC
:1009B00080F81E90686102644377C36383630362B7
:1009C00083613861C0F828800663C662BDE8F00F15
:1009D000704700BF180A002061040108AFF30080CF
:1009E0002DE9F84F9E460446202383F311881B4EC1
:1009F000DFF86CB0736964390144C160002500F10F
:100A0000280C00F12C074FF0020A0A98C1F840E0C8
:100A10004FF014094FF001084864C1F860B0204657
:100A20006361A2602661226484F81CA084F81F9090
:100A300084F81E8065777461E563A5632562A5610E
:100A400029461C61C4F828C02763E762FFF7D8FE77
:100A50002B4683F311882046BDE8F88F180A002042
:100A600061040108AFF30080AFF30080AFF30080B2
:100A700008B50146202383F311880620FFF798FE6E
:100A8000002383F3118808BDAFF30080AFF300802B
:100A900038B50E4B9C692546606255F8280FA84270
:100AA00006D00368A362FFF753FEA06AA842F8D1FC
:100AB000637F9B0704D1636922691A6122695361CC
:100AC0000E20BDE83840FFF75BBE00BF180A0020CB
:100AD000202383F31188FFF7DBBF00BFAFF3008053
:100AE0000023406000608360704700BFAFF3008068
:100AF00070B52F4B054680689C69002853D0A268CA
:100B000083689A4206D9037F8260042B32D0052B7A
:100B10001CD09BB12B4603E09968A268914202D396
:100B20001B689D42F8D15A68626023605C60146063
:100B300065620420BDE87040FFF722BE90E80C001B
:100B40001A6002685360FFF703FEE3E790E80A00CB
:100B50001960466A01684B60334602E09968914229
:100B600002D31B689E42F9D15A6842600360586004
:100B70001060CFE790E80A001960466A01684B6090
:100B8000334602E09968914202D31B689E42F9D134
:100B90005A684260036058601060B068A268836859
:100BA0009342B0D3B6E7E36BEB60AC60E56370BD36
:100BB000180A0020AFF30080AFF30080AFF300808D
:100BC00008B5202383F31188FFF792FF002383F3F6
:100BD000118808BDAFF30080AFF30080AFF3008051
:100BE000174A38B59069202383F31188C46B2568B0
:100BF000E368C363A5421CD0016C4BB11A689A42EA
:100C000003D09268914238BF1146DB68002BF5D1C2
:100C10002B68EA6B8160236028465C600021A56038
:100C2000E260EC63FFF7ECFD002383F311882046BC
:100C300038BD0023A360002383F31188204638BD0C
:100C4000180A0020AFF30080AFF30080AFF30080FC
:100C500008B5826B037F1143082B81630BD0092BEE
:100C600000D008BD436A19408B42FAD1FFF770FDEE
:100C70000023436208BD436A1942F7D108BD00BF93
:100C800070B50468A04205460E4608D0201D0BC86A
:100C90003343E360FFF7DCFF2468A542F6D170BD63
:100CA00008B5202383F31188FFF7D2FFFFF718FE62
:100CB000002383F3118808BDAFF30080AFF30080F9
:100CC00038B50B4B05469C69202383F31188A36B31
:100CD000184006D108206562FFF752FDA36B05EAB4
:100CE000030023EA0003A363002383F3118838BDC4
:100CF000180A0020AFF30080AFF30080AFF300804C
:100D000010B5202383F311880B4CA269134653F8C6
:100D10002C0F984208D00168D1620B224B6000234F
:100D2000027783F3118810BD0C20FFF729FDA2691B
:100D3000D06A02F12C03EEE7180A0020AFF300801E
:100D400008B5202383F31188FFF75AFD002383F3AE
:100D5000118808BDAFF30080AFF30080AFF30080CF
:100D600010B4024661B1094B9B69586244680D207A
:100D700083E81400536023605DF8044BFFF718BD4F
:100D80004FF0FF305DF8044B704700BF180A002099
:100D900030B4029C046200250A4485600261406010
:100DA000006041618161C160C36130BC704700BFB8
:100DB00038B504460068E36863610022A042A2607F
:100DC000A3610AD06FF00105036823605C60FFF740
:100DD000BFFC45622068A042F6D138BDAFF3008069
:100DE000034642698069824210B598681BD0541C42
:100DF00001305C619860117059691A6991420BD297
:100E0000186898420DD002681A605360FFF7A0FC82
:100E100000234362184610BD1868DA685A61984288
:100E2000F1D1002010BD0028E1D06FF0030010BD0B
:100E300070B5202304460E4683F31188C3692BB195
:100E4000984703E0FFF78CFF002815DBA5682046D4
:100E50003146002DF6D0A2692169531C8B4205F161
:100E6000FF35A361A56028BFE368107828BFA361A0
:100E7000002383F3118870BD2B4683F3118870BD66
:100E80002DE9F0471E460446D0F81C80202383F34A
:100E900011884FF0000901EB020A4F1CB8F1000F56
:100EA00005D02046C04702E0FFF75AFFF0B9A56819
:100EB00020463146002DF7D0A369013D5A1CA2619E
:100EC000A5601B7807F8013C2369A2699A4224BFF8
:100ED000E368A361002383F31188574509F10109F1
:100EE00007D0202383F311880137D7E72B4683F3FC
:100EF00011884846BDE8F087AFF30080AFF300806B
:100F000030B4029C04628D1805614060006082600C
:100F100041618161C160C36130BC7047AFF3008043
:100F200038B50269C368044600686361D21AA042FA
:100F3000A361A2600AD06FF00105036823605C60C2
:100F4000FFF706FC45622068A042F6D138BD00BF1D
:100F5000F8B504460F461646202383F3118803E0B4
:100F6000FFF7FEFE002819DBA56820463146002D5C
:100F7000F6D06369013D5A1C6261A5601F70236948
:100F800062699A4224BFE3686361E3690BB120465A
:100F90009847002383F311880020F8BD2B4683F384
:100FA0001188F8BDAFF30080AFF30080AFF300808D
:100FB00041698269914210B50346816816D018696B
:100FC0004C1C511C9C609961814214780BD21868AA
:100FD000984206D002681A605360FFF7B9FB0023FD
:100FE0004362204610BDDA689A61F0E70029E6D036
:100FF0006FF0020010BD00BFAFF30080AFF30080C0
:101000002DE9F84F9A4604460E461746D0F81C9034
:10101000202383F311884FF00008A56806F1010B27
:1010200020466B1EDDB16269A360531C6361337897
:101030001370236962699A4224BFE3686361B9F15E
:10104000000F00D0C847002383F31188013F08F147
:1010500001080DD0202383F311885E46DDE720468A
:101060005146FFF77DFE0028D7D02B4683F3118829
:101070004046BDE8F88F00BFAFF30080AFF30080BB
:101080000548064A0649074B20F0070022F00702F0
:1010900008601A60704700BF4321002000C0012093
:1010A000380A0020340A0020AFF30080AFF300803C
:1010B000202383F31188094A094913680968073016
:1010C00020F00700C91A88429BBFC018106000209A
:1010D0001846002383F31188704700BF380A0020A8
:1010E000340A0020AFF30080AFF30080AFF300803C
:1010F000044B054A1A6003F1100000229A60DA607E
:10110000FFF7EEBC400A0020B1100108AFF30080E9
:1011100008B501F0EDF800F0D3FB0B4801F0C0FB7F
:1011200000F036F800F06CF800F0BAF800F048F97A
:1011300000F08EFB00F0E4FB00F0AAF800F040FAAB
:10114000BDE8084003F0ACB9E0550108AFF30080FA
:101150000C494A68104482424B680CD29A4203D927
:101160000023002BF7D17047984294BF002301233E
:10117000002BF0D1F7E79A42F6D80123002BEAD1F1
:10118000F1E700BF001000E0AFF30080AFF3008094
:1011900001F066B9AFF30080AFF30080AFF30080D9
:1011A00000230122027043608360C36003614361D6
:1011B000704700BFAFF30080AFF30080AFF3008053
:1011C00010B52023044683F31188416001F088F9AB
:1011D00002232370002383F3118810BDAFF3008036
:1011E00010B51C46202383F311880323037082600B
:1011F000C460016101F0D4F9002383F3118810BDAC
:1012000001F0D6BDAFF30080AFF30080AFF30080F4
:1012100001220023027043600C30FFF761BC00BF65
:1012200010B52023044683F31188416001F0D8FDF6
:1012300002232370002383F3118810BDAFF30080D5
:10124000F0B585B01F4604460A9E0B9D202383F30C
:1012500011884FF0030E0C9B02930020009601951D
:101260003B46A06084F800E0204601F079FE431C74
:101270000CBF052302232370002383F3118805B0DC
:10128000F0BD00BFAFF30080AFF30080AFF300808C
:10129000704700BFAFF30080AFF30080AFF3008072
:1012A00002F096BDAFF30080AFF30080AFF3008093
:1012B0000122002302704360704700BFAFF300803B
:1012C00010B52023044683F311888B880381416085
:1012D00002F0C6FD02232370002383F3118810BDA2
:1012E00010B52023044683F3118802F0F9FE012390
:1012F0002370002383F3118810BD00BFAFF300807B
:1013000008B5202383F3118802F052FF002383F3F2
:10131000118808BDAFF30080AFF30080AFF3008009
:1013200008B5202383F3118802F062FF002383F3C2
:10133000118808BDAFF30080AFF30080AFF30080E9
:101340000C30FFF79DBD00BFAFF30080AFF300800E
:101350000C304FF0FF33FFF793BD00BFAFF30080B9
:101360003030FFF74DBE00BFAFF30080AFF3008019
:1013700030304FF0FF33FFF743BE00BFAFF30080C4
:101380000C30FFF755BD00BFAFF30080AFF3008016
:101390000C304FF0FF31FFF74BBD00BFAFF30080C3
:1013A0003030FFF7D5BD00BFAFF30080AFF3008052
:1013B00030304FF0FF32FFF7CBBD00BFAFF30080FE
:1013C00002F0E6BFAFF30080AFF30080AFF3008020
:1013D00070B50E4B044682B040F8043B01260094E1
:1013E0000B461546606004F1540104F10C002672AE
:1013F0001022FFF7CDFC00942B4604F1300004F1DD
:1014000064011022FFF77CFD02B070BD505401084A
:1014100010B52023044683F3118802F0D9FF02237C
:101420002372002383F3118810BD00BFAFF3008047
:1014300038B5436904460D463BB1294604F10C001A
:10144000FFF7CEFC00280BDB38BD04300421FFF78A
:1014500017FC294604F10C00FFF7C2FC0028F3DA60
:10146000201D8021BDE83840FFF70ABCAFF30080A3
:1014700010B5046AD4F854321A681178042900D0DF
:1014800010BD217A0229FBD112891B7942FA03F39C
:1014900013F00103F4D1206CE16BA26B411A8A1A9C
:1014A000EED083F31188D4F85412134608680979F2
:1014B00004F1300200F094FA202383F31188D4F869
:1014C0005432BDE810401868197900F0B1BA00BF75
:1014D00038B5046AD4F8542213681978042900D066
:1014E00038BD217A0229FBD15279598903EB820355
:1014F00041FA02F2DB68598A12F00103F0D1E56982
:10150000A0696269281A801A8142E9D883F3118898
:10151000D4F85422B0FBF1F301FB03F310685179C6
:1015200004F10C0200F04CFA202383F31188D4F864
:10153000543218685979BDE8384000F061BA00BFEC
:101540000C30FFF79DBC00BFAFF30080AFF300800D
:101550000C304FF0FF33FFF793BC00BFAFF30080B8
:101560003030FFF74DBD00BFAFF30080AFF3008018
:1015700030304FF0FF33FFF743BD00BFAFF30080C3
:101580000C30FFF755BC00BFAFF30080AFF3008015
:101590000C304FF0FF31FFF74BBC00BFAFF30080C2
:1015A0003030FFF7D5BC00BFAFF30080AFF3008051
:1015B00030304FF0FF32FFF7CBBC00BFAFF30080FD
:1015C000704700BFAFF30080AFF30080AFF300803F
:1015D00010B503460E4A43F8042B82B0044601229C
:1015E000009004F15401436002720A4B0C304FF436
:1015F0008072FFF7CDFB009404F1300004F5AA716E
:101600004FF48072044BFFF77BFC02B010BD00BFAB
:1016100070540108D114010871140108AFF300805F
:1016200030B40A68202383F311880B7902EB83031B
:10163000022498614D790935002342F825008D79FF
:1016400002EB85029061C0F85412047283F3118892
:1016500030BC7047AFF30080AFF30080AFF3008081
:10166000D0F8542270B520230446126883F3118801
:10167000D0F854321979053102EB810100254D6013
:1016800059790931012642F821509B79053302EB43
:1016900083020221556004302672FFF7F1FA04F14B
:1016A0000C00FFF785FB04F13000FFF739FCFFF772
:1016B00017F92B4683F3118870BD00BFAFF300808C
:1016C00070B5D0F8543200F10C06044630461D685F
:1016D000FFF76EFB04F13000FFF722FC201D012113
:1016E000FFF7CEFAD4F85432597905EB8103284636
:1016F000DB6832465B8A00F063F9D4F8543228463E
:101700005979BDE8704000F07BB900BFAFF30080AD
:1017100090F8443003F06003202B01D00020704784
:1017200090F84530212B03D0222B09D0202BF5D166
:10173000064B836307220023C263036401207047C2
:1017400000238363C3630364012070470008002003
:1017500000EB810370B59C6906460D46ACB12023B1
:1017600083F311880821201DFFF78AFA216CE26BB0
:10177000A36B8A1AD11A13D106EB8503DA68536971
:101780005B681BB9002383F3118870BD128A013A8C
:101790001340F7D183F31188002304F1300205E0F0
:1017A000002383F3118804F130020B4630462946AA
:1017B00000F016F9202383F311883046294600F003
:1017C00037F9DFE7AFF30080AFF30080AFF30080BD
:1017D00001F1090370B550F823400D460646A4B147
:1017E000202383F3118804216018FFF749FA06EBE0
:1017F0008503E069DA68A1696369528A411AC91AE6
:101800008A4203D9002383F3118870BD002383F338
:101810001188B1FBF2F302FB03F3304604F10C0232
:10182000294600F0CDF8202383F31188304629465D
:1018300000F0E6F8E6E700BFAFF30080AFF300800A
:10184000704700BFAFF30080AFF30080AFF30080BC
:1018500002F086B9AFF30080AFF30080AFF30080F1
:10186000002301220270436083600C30FFF738B917
:10187000014B5B6883607047001000E0AFF30080AD
:101880000B4B0C4A81685B6810B41468C2685B1A21
:101890001B1B9342836006D802695DF8044B934298
:1018A00038BF03617047C3605DF8044B704700BFE9
:1018B000001000E0600A0020AFF30080AFF300806A
:1018C00010B586B00A4C0B4B0B4901934FF0FF301B
:1018D00000230590236004934B68084A039301A8F2
:1018E0000292FFF7CDFF039B236006B010BD00BF3F
:1018F000600A002071180108001000E0811801083A
:1019000001F096BEAFF30080AFF30080AFF300802C
:101910000023012202704360C36183620362C362D9
:101920004362036303814381704700BFAFF30080CC
:1019300038B50446202383F3118800254160C56033
:1019400005614561856101F08BFE02222B46227004
:1019500083F3118838BD00BFAFF30080AFF3008080
:1019600010B52023044683F3118801F0E9FE01231A
:101970002370002383F3118810BD00BFAFF30080F4
:1019800070B50646506914460D4618B10021102264
:1019900003F0F6FCA06918B10021102203F0F0FC5E
:1019A00006EB85033046DC602946BDE8704001F057
:1019B0004FBF00BFAFF30080AFF30080AFF30080F4
:1019C00070B400EB81040126E468A4690025E2609C
:1019D00063602670A56070BC02F022B8AFF300808F
:1019E00070B400EB81040126E46864690025E260BC
:1019F00063602670A56070BC02F02AB8AFF3008067
:101A000070B5448944FA01F313F0010601D00120B6
:101A100070BD012303FA01F52C43448102F038F82C
:101A2000304670BDAFF30080AFF30080AFF30080AD
:101A300070B5048944FA01F313F0010601D00120C6
:101A400070BD012303FA01F52C43048102F030F844
:101A5000304670BDAFF30080AFF30080AFF300807D
:101A6000002202210170A0F84C2080F84E2080F85E
:101A70004F2002814281C26002614261826180F82E
:101A8000342001F075BE00BFAFF30080AFF30080DB
:101A900070B50023044680F8343000F1440201F0B0
:101AA000AFFF63689B686BB32046984750B3E06B09
:101AB00094F8443094F84B1094F84A2042EA0122FA
:101AC00082423CBFE263104613F0800FE36840F0AF
:101AD000888000286CD15B69052284F83420014697
:101AE0001870D86058609860204601F0B1FF20233C
:101AF00083F3118800212046FFF79AFF002383F328
:101B0000118870BD94F8443013F0600611D020465F
:101B1000002101F0F5FF2046002101F0E1FF63689C
:101B20001B6813B1204605219847062384F83430FA
:101B300070BD94F8455003F07F0242EA0525B5F5E3
:101B4000407F00F0E48016DDB5F5C06F00F0C7807F
:101B50005EDDB5F5106F6ED040F60242954200F0A2
:101B6000E980B5F5006FD2D104F14F02012026645F
:101B7000A263E0639EE7022D00F09B8040F390801B
:101B8000B5F5807F7CD0B5F5817FC0D194F8462033
:101B9000002ABCD194F8482012F00F0146D012065A
:101BA000204600F1EF8001F0BBFF94F844303DE0A7
:101BB0009B69A56B0022042184F834101146DD6076
:101BC00058601A709A60204601F02AFF202383F3A0
:101BD000118800212046FFF713FF002383F31188AB
:101BE00070BD58B15B69A56B0022012184F83410E7
:101BF0001146DD6058601A709A6075E79B69032290
:101C000084F8342001461870D86058609860DAE78C
:101C100040F20232954220D0B5F5A06F7FF477AF45
:101C2000B4F84420B2F5A06F00F09A800020A063C1
:101C3000E06320643EE794F8462084F84F20002AB1
:101C40007FD10322227062681268002AEED02046FB
:101C50000221904794F84430E8E794F84620002A9F
:101C60007FF455AF94F8482012F00F01DED0130630
:101C7000204600F18C8001F033FF94F84430D5E722
:101C800094F84620012A7FF442AFB4F84C20A663B2
:101C900022F00202E66326643046A4F84C2009E7ED
:101CA000002D44D104F14C0202202564A263E063BC
:101CB00000E794F8481011F0800F204601F00F0162
:101CC00042D101F07DFE012842D002287FF41FAFEF
:101CD000314BA363E063266494F84430EAE662681B
:101CE00094F8490094F84830556894F8471094F8EF
:101CF000462043EA00232046A84700283FF407AFC8
:101D000009C82664A363E06394F84430D2E694F8EB
:101D10004620012A7FF4FBAEB4F84C20A66342F0C3
:101D20000202E66326643046A4F84C20C2E6012D88
:101D30007FF4EDAE194AA26302200022E063226420
:101D4000B8E6042222707EE701F04AFE0128BCD1E9
:101D5000134BA363E5632664284694F84430A9E650
:101D600094F8463084F84E30204601F061FD6368F7
:101D70001B6813B1204601219847032294F8443090
:101D8000227053E701F0DCFE94F844304EE701F096
:101D9000B7FE94F8443049E7A05401089054010874
:101DA000B0540108AFF30080AFF30080AFF30080C0
:101DB00038B590F83430022B044643D0052B3AD086
:101DC000012B10D0002101F09BFE2046002101F0E4
:101DD00087FE63681B6813B12046052198470623D8
:101DE00084F8343038BD90F84B1090F84A30C26B0C
:101DF00043EA01239342C36805D9198AB2FBF1F57E
:101E000001FB152202B39A690321002384F83410E0
:101E1000204619461370D3605360936001F000FEB2
:101E2000202383F3118800212046FFF7E9FD0023DA
:101E300083F3118838BD036C03B19847002384F8FD
:101E4000343038BDC368DEE75B6911461A70DA606A
:101E50005A609A6001F0FCFD202383F31188002171
:101E60002046FFF7E5FD002383F31188022384F861
:101E7000343038BDAFF30080AFF30080AFF30080A3
:101E800090F83430032B10B504462BD0042B11D01E
:101E90002046002101F034FE2046002101F020FE02
:101EA00063681B6813B1204605219847062384F810
:101EB000343010BDC3685A690521002380F83410FE
:101EC00019461370D3605360936001F0C1FD202365
:101ED00083F3118800212046FFF7AAFD002383F336
:101EE000118810BDC3689B699B68002BD0D1036C1F
:101EF00003B19847002384F8343010BDAFF300805D
:101F000008B5074B074A196801F03D01996013684D
:101F10000BB150689847BDE80840FEF739BA00BFDA
:101F200000600240640A0020AFF30080AFF300803D
:101F3000084B094819688268890901F03D0110B50C
:101F40008C019C600AB1C0689047BDE81040FEF764
:101F50001FBA00BF00600240640A0020AFF3008097
:101F6000084B094819680269090C01F03D0110B5D8
:101F70000C049C600AB140699047BDE81040FEF730
:101F800007BA00BF00600240640A0020AFF300807F
:101F9000084B094819688269890D01F03D0110B5A7
:101FA0008C059C600AB1C0699047BDE81040FEF7FF
:101FB000EFB900BF00600240640A0020AFF3008068
:101FC00008B5074B07485968026A01F03D01D9601E
:101FD0000AB1406A9047BDE80840FEF7D9B900BF92
:101FE00000600240640A0020AFF30080AFF300807D
:101FF000084B09485968826A890901F03D0110B50A
:102000008C01DC600AB1C06A9047BDE81040FEF761
:10201000BFB900BF00600240640A0020AFF3008037
:10202000084B09485968026B090C01F03D0110B5D5
:102030000C04DC600AB1406B9047BDE81040FEF72D
:10204000A7B900BF00600240640A0020AFF300801F
:10205000084B09485968826B890D01F03D0110B5A4
:102060008C05DC600AB1C06B9047BDE81040FEF7FC
:102070008FB900BF00600240640A0020AFF3008007
:1020800008B5074B07481968026C01F03D019960DB
:102090000AB1406C9047BDE80840FEF779B900BF2F
:1020A00000640240640A0020AFF30080AFF30080B8
:1020B000084B09481968826C890901F03D0110B587
:1020C0008C019C600AB1C06C9047BDE81040FEF7DF
:1020D0005FB900BF00640240640A0020AFF30080D3
:1020E000084B09481968026D090C01F03D0110B553
:1020F0000C049C600AB1406D9047BDE81040FEF7AB
:1021000047B900BF00640240640A0020AFF30080BA
:10211000084B09481968826D890D01F03D0110B521
:102120008C059C600AB1C06D9047BDE81040FEF779
:102130002FB900BF00640240640A0020AFF30080A2
:1021400008B5074B07485968026E01F03D01D96098
:102150000AB1406E9047BDE80840FEF719B900BFCC
:1021600000640240640A0020AFF30080AFF30080F7
:10217000084B09485968826E890901F03D0110B584
:102180008C01DC600AB1C06E9047BDE81040FEF7DC
:10219000FFB800BF00640240640A0020AFF3008073
:1021A000084B09485968026F090C01F03D0110B550
:1021B0000C04DC600AB1406F9047BDE81040FEF7A8
:1021C000E7B800BF00640240640A0020AFF300805B
:1021D000084B09485968826F890D01F03D0110B51F
:1021E0008C05DC600AB1C06F9047BDE81040FEF777
:1021F000CFB800BF00640240640A0020AFF3008043
:102200000C4B30B400220C4D0C4C1A601146134696
:10221000E8580C33C02B0160A15002F10802F7D13D
:102220000749084A4FF0FF338B6030BCCB609360A6
:10223000D3607047E40A0020C0540108640A0020FB
:102240000060024000640240AFF30080AFF3008002
:102250002DE9F041214E447A3768012505FA04FC46
:102260001CEA070F33D11E4D4CEA070705EBC408E3
:1022700017F0FF0F45F834203760C8F8043004D059
:10228000184B1C6B44F400141C6317F47F4F18D1D7
:102290000468236823F01F032360236813F00105FB
:1022A000FBD1067A43683D27B74021261F60256091
:1022B00066617AB1807A0901FEF7DAF82846BDE84E
:1022C000F081084B1C6B44F480041C63E0E7284653
:1022D000BDE8F0811046BDE8F08100BFE40A0020AF
:1022E000640A002000380240AFF30080AFF30080A2
:1022F000214B22491A69DFF894C000224FF0FF30C9
:102300002DE9F00118611A615F6958615A611F6A0D
:102310001B4E1C4D1C4C67F080571F621A6207272A
:10232000D3F8248058625A62C1F804C08A600F60F2
:10233000F16841F08071F160296841F00101296084
:10234000196C41F080511964216841F48071216059
:10235000196F01F44071B1F5007F03D04FF4803163
:1023600019671A67084B5A6822F400725A60BDE870
:10237000F001FFF745BF00BF0038024010E000E069
:10238000F0ED00E0001000E0007000403F9002001F
:102390002B492C4B4FF080504FF4404208641A6098
:1023A0000B6843F001030B600B68254A9807FBD5C7
:1023B0001168002301F0F9011160114693608B68E8
:1023C0001F4A13F00C0FFAD1136843F480331360E3
:1023D00011460B681A4A9B03FBD5536F43F0010368
:1023E000536711464B6F164A9807FBD5164B53603F
:1023F0001368144943F0807313604B685A04FCD58A
:102400000F490B680E4A9B01FBD5104B1049916098
:1024100040F205711960936843F00203936011461E
:102420008B68074A03F00C03082BF9D1536C43F473
:1024300080435364536E43F480435366704700BF38
:10244000003802400070004008544007003C024041
:1024500000940838AFF30080AFF30080AFF3008042
:10246000F8B5124E124D134C134F3046FEF798FE3E
:10247000124A134BB26128463362F761FEF790FEB1
:10248000104A114BAA612046A7F11802EA612B629B
:10249000243FFEF785FE0D4B0D4AE761A2612362E2
:1024A00012206021BDE8F840FDF7E2BFE80A0020F5
:1024B0000C0B0020300B002050550108002001407B
:1024C000162C020000210140162C0202162C0204D8
:1024D00000220140AFF30080AFF30080AFF3008033
:1024E0000378012B10B5044600D010BD234B984251
:1024F00013D0234B984220D0224B98422DD0224912
:10250000A3694C6804F44004002244F480340120A0
:102510004C605A609A60986010BD1C4AC0690621E0
:102520002346FFF795FEE36919491A68194B916034
:102530005A6C42F480725A64E1E7144AC069062179
:102540002346FFF785FEE36913491A68114B916032
:102550005A6C42F400725A64D1E70C4AC0690621F1
:102560002346FFF775FEE3690C491A68094B916031
:102570005A6C42F480625A64C1E700BFE80A002046
:102580000C0B0020300B002000230140C127010864
:102590004C200140003802404C2101404C220140B7
:1025A0000369026A19782DE9F003C46829B1012C86
:1025B00094BF42F4807242F48472C1695E880968F3
:1025C0008568CD6006FB04F44C60D3F80C800A608B
:1025D00082691869D1F800909F69DE691D6A5C6A9A
:1025E000D3F814C010F0804F48F0806340F440707E
:1025F00049F001094FF0000843F4807314BF40F024
:10260000030040F00100C1F80090C2F80080C2F859
:102610000CC01761D662156354635360BDE8F003C4
:1026200090607047AFF30080AFF30080AFF300809D
:10263000C1690A68136823F01F0310B4136013689C
:1026400013F00103FBD10C7A826948683D2101FA3D
:1026500004F40121046053605DF8044B93609160C1
:10266000704700BFAFF30080AFF30080AFF300808E
:102670004B4B1A68002110B51960910605D5494CDD
:10268000E3691B685B68002B64D1474B1A68002123
:102690009206196005D5454CE3691B685B68002B01
:1026A00032D1434B1A6800211960930628D5414C5A
:1026B000E3691B685B681BB323690BB32046FFF714
:1026C000B7FF23699B684BB1052222702046012188
:1026D00098472378052B04BF02232370002323612E
:1026E000202383F31188334B586930B14FF0FF3208
:1026F000426200225A61FEF72BF8002383F311880F
:10270000BDE81040FDF744BE2369002BC9D0204628
:10271000FFF78EFF23699B684BB10522227020468C
:10272000012198472378052B04BF0223237000233F
:102730002361202383F311881C4B586930B14FF07B
:10274000FF32426200225A61FEF702F8002383F34F
:102750001188A6E72369002B97D02046FFF768FF72
:1027600023699B684BB105222270204601219847BE
:102770002378052B04BF0223237000232361202329
:1027800083F31188074B586930B14FF0FF32426232
:1027900000225A61FDF7DCFF002383F3118874E700
:1027A00000200140E80A0020002101400C0B00201D
:1027B00000220140300B0020AFF30080AFF3008017
:1027C00011F00C0F38B504461DD10369D3B18D0645
:1027D00010D51D78002D3BD05D689DB1C268012ADF
:1027E00033D959888368520801FB02F103EB410198
:1027F000A84738BDCA0605D55B681BB1C2688168A9
:102800005208984738BDFFF713FF23699B684BB107
:10281000052222702046002198472378052B04BF0B
:102820000223237000232361202383F3118863692B
:102830003BB100214FF0FF32616118465A62FDF74B
:1028400087FF002383F3118838BD8168A84738BD0E
:10285000FFF7EEFE23695B68CBB1042222702046AD
:10286000A168E26898472378042B0CD0202383F3D7
:1028700011886369002BE4D00022626118465A6215
:10288000FDF766FFDDE7022325612370EEE70222F4
:1028900023612270EAE700BFAFF30080AFF300804E
:1028A0002DE9F00FDFF8AC91DFF8AC81D9F830B04A
:1028B000DFF8A8C1604F614E614D624C6249634AC6
:1028C00040F2FF1A4BEA0A0BC9F830B0D9F850B001
:1028D0004BEA0A0AC9F850A04368C8F80430836874
:1028E000C8F80830C368C8F80C300369C8F8143059
:1028F0004369C8F820308369C8F824300368C8F8F1
:102900000030036ACCF80430436ACCF80830836A9C
:10291000CCF80C30C36ACCF81430036BCCF8203000
:10292000436BCCF82430C369CCF80030C36B7B60B8
:10293000036CBB60436CFB60836C7B61C36C3B626C
:10294000036D7B62836B3B60876D7760C76DB7609B
:10295000076EF760476E7761876E3762C76E776282
:10296000476D3760466F6E60866FAE60C66FEE6013
:10297000D0F880606E61D0F884602E62D0F88860F4
:102980006E62066F2E60D0F890506560D0F894505B
:10299000A560D0F89850E560D0F89C506561D0F8FB
:1029A000A0502562D0F8A4506562D0F88C50256004
:1029B000D0F8AC404C60D0F8B0408C60D0F8B44057
:1029C000CC60D0F8B8404C61D0F8BC400C62D0F874
:1029D000C0404C62D0F8A8400C60D0F8C8105160DC
:1029E000D0F8CC109160D0F8D010D160D0F8D410CD
:1029F0005161D0F8D8101162D0F8DC105162D0F8D3
:102A0000C4101160124BD0F8E4205A60D0F8E820CE
:102A10009A60D0F8EC20DA60D0F8F0205A61D0F853
:102A2000F4201A62D0F8F8205A62D0F8E0201A6038
:102A3000BDE8F00F704700BF00080240000C0240E4
:102A4000001002400014024000180240001C024026
:102A50000020024000380240000002400004024012
:102A600010B4436B046B4FF40041226819800021BD
:102A7000198099809982136823F01F0313601368EB
:102A8000D907FCD4C16A207A63680A683D2404FA35
:102A900000F01860136823F01F0313601368DB074E
:102AA000FCD40A7A4B685DF8044B3D2101FA02F22E
:102AB0001A607047AFF30080AFF30080AFF300807F
:102AC00038B50446202383F31188C5694DB1FFF75B
:102AD000C7FF00224FF0FF33E26128466B62FDF72B
:102AE00037FE002383F3118838BD00BFAFF30080A9
:102AF00011F00C0F38B50546446B14D1296B0A68E8
:102B0000136823F01F0313601368DB07FCD40A7AF1
:102B10004B683D2101FA02F21A60A3889BB243F48C
:102B20000073A38038BDFDF7EBFBE7E7AFF3008050
:102B300011F00C0F38B50546446B2ED1E96A0A68CE
:102B4000136823F01F0313601368DB07FCD40A7AB1
:102B50004B683D2101FA02F21A60A38823F48053E6
:102B60001B041B0CA380238823F480631B041B0C11
:102B7000238023889BB243F400732380202383F3B4
:102B80001188EB692BB10022EA6118465A62FDF701
:102B9000DFFD002383F3118838BDFDF7B1FBCDE7DE
:102BA000414A424938B5546B238BA58AADB245EAF8
:102BB000034323F07F438B4260D021D807398B42F7
:102BC00050D001318B4213D1A388D26A23F4007311
:102BD0001B0412681B0CA380136843F001031360ED
:102BE000A3889BB243F48053A3805368012B54D92C
:102BF00015F00A0F18BF238BBDE83840FDF7C8BB9E
:102C00002B498B4221D002318B42F1D1D36A1B6810
:102C10005B68002B37D1A38823F400731B041B0CC3
:102C2000A38023889BB243F400732380202383F383
:102C30001188D0691C4A20B100234362D361FDF79B
:102C400087FD002383F31188D2E7A388126B23F456
:102C500000731B0412681B0CA380136843F001036C
:102C60001360C5E7138C1A0A0BD003F0010343F07D
:102C7000F00302F006021A432282B9E7138CC3F371
:102C800047032382B4E72388118C9BB243F4A063EB
:102C900041F0010111842380AEE7238823F480638F
:102CA0001B041B0C2380A3E7540B00200800030027
:102CB00082000700AFF30080AFF30080AFF3008025
:102CC0003748F8B5446B066BA18A326889B201F4C3
:102CD0005F4383F47F4383F0FF03A382136823F0F1
:102CE0001F0313601368DF07FCD4377AC56A736863
:102CF0002A683D26BE401E60136823F01F03136040
:102D0000136813F00103FBD12E7A6A683D25B540A4
:102D10001560CD0548BF01238A05836044BF43F099
:102D2000020383604F050DD5A28822F400721204BD
:102D3000120CA280228892B243F0040342F4007283
:102D4000228083600E0544BF43F0080383604D0476
:102D500044BF43F020038360CC0444BF43F010031E
:102D600083600A0404D433B9BDE8F840FDF710BB12
:102D700043F040038360202383F31188C069084B2C
:102D800030B16FF0010242620022DA61FDF7E0FC2F
:102D9000002383F31188BDE8F840FDF7F9BA00BFBE
:102DA000540B0020AFF30080AFF30080AFF300803E
:102DB00010B5074C2046FEF72BFA064B064A626315
:102DC000002103F14802E161E362226310BD00BF0C
:102DD000540B0020C054010800540040AFF30080A1
:102DE000037840F256422DE9F047012B826240F20F
:102DF000164204464262456B51D02A46E16A236B73
:102E0000D1F80090D3F800A061684D4E48680F7A61
:102E100005F110034FF4004800244FF4106CC9F87A
:102E20000830CAF80830A5F800802C80A5F804C046
:102E3000938823F03F031B041B0C938093889BB261
:102E400043F02A03B042938020DD3E4B984207DCDA
:102E5000022F6AD0032F5BD048F6FF740D23138432
:102E600094830978138802299BB24BD0032946D05A
:102E7000012907D013802B889BB243F001032B80DC
:102E8000BDE8F08723F00A039BB2F3E72E4C400025
:102E900094FBF0F42B23C4F30B041384E0E72B4BD7
:102EA0009842AAD12A4EC06A316A2A4A41F40011D6
:102EB00000233162052133622346FFF7C9F9264A10
:102EC000206B05212346FFF7C3F9336C43F400134D
:102ED00033641F205021FDF7CBFA50212020FDF74D
:102EE000C7FA616AA36A626B41F0007143F0007334
:102EF00041F4403143F440336162A3627EE743F022
:102F00000A03B7E723F008039BB243F00203B1E7DB
:102F100000EB80000C4C00EB800094FBF0F46FEAB7
:102F200084446FEA9444A4B298E7074C00EB400055
:102F300094FBF0F46FEA44446FEA5444A4B28DE782
:102F4000A0860100801A060080DE8002540B00205B
:102F500000380240312B0108F12A0108AFF300804C
:102F60002DE9F04987B08046109D446B681C8B4664
:102F700017461E4605D001A82946364A4346FDF7A6
:102F800067FB002383F31188D8F82C20D8F8303061
:102F900010681B68D8F824100022C8F808204FEAEF
:102FA0004B0BD8F82820A8F820B01A60DF600F9AE1
:102FB0005E600E9B0160C360426002E0002383F309
:102FC0001188228B12F0020F4FF0200302D12288C9
:102FD00092050BD583F31188691CEFD0049A002A5F
:102FE000ECD14FF0FF3007B0BDE8F08983F31188D2
:102FF00001351DD0049B002BF3D0A388164D9BB246
:1030000043F40073A3802288AB6992B242F48072C9
:1030100022800220C8F81C30FDF7B2FB049B13B1DC
:1030200001A8FDF735FBAB69586A07B0BDE8F08928
:10303000A388094D9BB243F40073A3802288AB6937
:1030400092B242F4807222800220C8F81C30FDF750
:1030500097FBE8E7C12A0108180A0020AFF30080B7
:10306000F8B5056D05EB41130646D3F8084BC3F8D8
:10307000084B22070F4603D5D5F814381B0714D484
:10308000E20703D5D5F81438DB0700D4F8BD06EB0A
:1030900087037189DB680122BA4021EA020272814A
:1030A000DB68304639469847F8BD00EB8103DB68A2
:1030B0005B689847E4E700BFAFF30080AFF30080A0
:1030C000F8B5056D05EB41130646D3F80849C3F87A
:1030D0000849E3070F4603D5D5F81038DA0720D49E
:1030E00023061DD50122D5F83438BA401A4217D02C
:1030F000202383F311880121F36DD5F83428706EF5
:1031000001FA07F73B4322EA0707F365C5F834786D
:1031100018B1FDF71DFB00237366002383F31188AC
:10312000F8BD00EB8103B0F808E0DB6801228A40BB
:103130002EEA020202819B689847D1E7AFF3008034
:103140002DE9F04FAE4BAF499A69D0F8509091619C
:1031500085B08346202383F3118800264F469BF8D1
:103160000030012B05D0DBF85C306BB97B69DA06E7
:103170000AD4BA69A24D42F01002AB69BA610220CA
:10318000CBF86430FDF7FCFA002383F311884FF08D
:10319000000A7B69DB0622D5DBF85000056A05F4DE
:1031A000F013B3F5802F2FD0B3F5402FF1D105F0F8
:1031B0000F030BEB8303C5F30A15DA68EB1C9B08BE
:1031C000146AE6D000F580500222016812B144F87A
:1031D000041B013A013BF8D17B69DB06DCD40122F8
:1031E000DBF85C3002FA0AF21A42019278D10AF155
:1031F000010ADBF854309B685FFA8AFA9A45C8D90D
:10320000202383F31188AAE705F00F080BEB880849
:10321000C5F30A15D8F80C3099690B78EBB90A1D7B
:1032200092E80C400332D21AEB1C9B084FEA920240
:1032300009D000F58050F446046812B14CF8044BF4
:10324000013A013BF8D10EEB0504CC60D8F80C3004
:103250009B699A6815449D609BE7CC6845B3626999
:1032600000F58050AE46BEF1030F07D923699A429C
:1032700004D3E2686261BEF1030FF7D8D0F800C052
:10328000002302F101092CFA03F1C4F81490117023
:1032900022696169914224BFE2686261BEF1010E58
:1032A00006D0182B02D008336269EAE76269DAE7D0
:1032B000202383F31188A36820682B44A042A360D5
:1032C00008D0036823605C60FDF742FA466220681C
:1032D000A042F6D1FDF704FB002383F31188B5E784
:1032E000202383F31188DBF85C30B968019D21F05D
:1032F000010123EA0502B9600023CBF85C2083F3C7
:1033000011880BEB8A0CDCF80C406069836841681B
:103310008B4280F0BB80DBF85020248A4FEA4A15AC
:1033200000951544C91AD5F81839A14234BF0D4685
:1033300025469BB2B5EB830F0AF1010A2ED80397FD
:1033400067460378002B3CD1EB1CC4689B0802EB5A
:103350000A3E18BF224605D052F8041BCEF80010D2
:10336000013BF9D12C44C460FC6860698368416802
:103370002B449942836040F28680DBF85020DDF8D0
:1033800000E0248A9644CD1ADEF81839A54228BFF9
:1033900025469BB2B5EB830FD3D9039F0022202390
:1033A00083F31188BB6843F00103BB602AB9D7F8E7
:1033B000343801990B43C7F83438002383F311885C
:1033C00017E702EB0A3EC4681DB3D4F810800295DB
:1033D0002A46910835D1A36900218C46581CA0616A
:1033E0001B78804503FA01F34CEA030C9CBFE368A9
:1033F000A361013A08D0182906D00831A369EDE786
:10340000180A002090550108CEF800C0002AE0D12B
:10341000029D202383F31188A36820682B44A042D7
:10342000A36008D0036823605C60FDF791F94662F1
:103430002068A042F6D1FDF753FA002383F31188E8
:1034400092E7A569B8EB050348BF03339B10994287
:1034500038BF0B464FEA8309C9EB02023BB129464C
:1034600051F8040BCEF80000013BF9D14D4445451D
:10347000A56104D3E368A361002AAAD1C8E7002AA2
:10348000C6D02B46A8E7039F012288E70AF1010A6C
:10349000FAE700BFAFF30080AFF30080AFF3008026
:1034A000D1F808C000212DE9F0010D464FF0804809
:1034B0004FF0FF3714E0C2F800590319C3F8105950
:1034C000C3F80879D2F8006B002E17DBC2F8005B56
:1034D000044401316145C4F8105BC4F8087B15D879
:1034E0004C010219D2F80039002BE4DAC2F8008945
:1034F0001646D6F808399B07FBD5DEE7C2F8008BE5
:103500001A46D2F8083BDB06FBD5E1E74FF0011382
:10351000C0F81C38BDE8F001704700BFAFF3008071
:1035200070B53F4E356D6B69AC691C40E0046C6151
:103530003FD4A10448BFD5F80838220704D57368E2
:10354000DB680BB136489847E30610D5202383F398
:103550001188AB69706E324E23F01003AB6118B165
:10356000FDF7F6F800237366002383F311886003E8
:10357000D5F8185807D5E9073AD4AA073ED46B07FF
:1035800042D42E0746D4240307D5E80323D4A90345
:1035900027D46A0318D42B0303D4BDE87040FCF78A
:1035A000F7BE1F480321FFF75BFDBDE87040FCF745
:1035B000EFBE3046FEF754FA73681B68002BB8D094
:1035C000304600219847B4E715480221FFF748FD2F
:1035D0002B03E2D5E5E700211148FFF741FDA903E0
:1035E000D7D50F480121FFF73BFD6A03D3D5EBE7A1
:1035F0000B480021FFF764FDAA07C0D50848012148
:10360000FFF75EFD6B07BCD505480221FFF758FDAB
:103610002E07B8D502480321FFF752FDB3E700BFDC
:10362000900B0020AFF30080AFF30080AFF3008079
:1036300010B5064C2046FEF76BF94FF0A043044A44
:103640002365002362652366636610BD900B00202E
:1036500080550108AFF30080AFF30080AFF3008026
:1036600070B50378066D012B82B0054601D002B01B
:1036700070BD2E4B984249D02B6E0022EA65002B7C
:1036800038D02B4BF3602B49C6F800184FF4502369
:103690000022C6F8002EB3632C6D2020FDF758FDE4
:1036A000012323612369DB07FCD40C20FDF750FDC7
:1036B0002369002BFCDA0024B460286D696DFFF7E4
:1036C000EFFE6B68C6F81048DB68C6F81448C6F809
:1036D0001C485BB143F20803B3614FF0FF337361E1
:1036E000B36843F00103B36002B070BD4FF44053C0
:1036F000B361F2E7009505F168004FF4DC71022236
:103700000D4BFDF735F968662866BAE70B4B5A6B27
:1037100042F080025A635969002241F080015961E8
:1037200043205A61E021FCF7A3FEA5E7900B00209F
:1037300040140040030020024131010800380240DB
:1037400038B50378056D012B044609D02846616D14
:10375000FFF7A6FE0023E365C5F81C38AB60AB633A
:1037600038BD00BFAFF30080AFF30080AFF300803F
:10377000F8B5046D202307462361226912F0200565
:10378000FBD10C20FDF7E4FC7B6D9E682A46FF21EF
:103790004FF0006504EB42130132B242C3F8005906
:1037A000C3F8005BC3F80819C3F8081BF2D94FF03F
:1037B000FF324FF00113C4F81828C4F81C387B6D91
:1037C0001A68BA651B6863623A6D10231361136946
:1037D00013F01005FBD10C20FDF7BAFCD4F800382B
:1037E000104A114823F4FE63C4F80038A36943F477
:1037F000402343F010030921A361C4F81018C4F852
:103800001418F860C4F8105BC4F8002BC4F8105901
:10381000C4F80029BB6D03F1100243F48013BA65AC
:10382000A362F8BD40800010A0550108AFF30080EE
:10383000036D90F84E10D3F8002822F4FE6242EA9D
:103840000112C3F800287047AFF30080AFF3008087
:103850002DE9F0410FFA81F800EB88060D46F36878
:10386000046D1A6802F00302022A5ED0032A5ED0B9
:103870004C4F4D49012A18BF0F46690104EB010E58
:10388000DA684FF0000CCEF810CB002A75D0B3F8F0
:1038900012E005F15802520147EA0E0E44F802E028
:1038A0004FF0010CD4F81C2805F1100E0CFA0EFE96
:1038B0004EEA0202C4F81C2821449A684FF0000E18
:1038C000C1F810E9002A34D09A8B198A012A4FEAEC
:1038D000910388BF534305F13F01826D04EB8101E1
:1038E00003EB020E42EA0343C0F858E04B60026D5E
:1038F000AB0143F02003136113699906FCD40C203B
:10390000FDF726FCF3681A8A05F1480342EA85525E
:103910005B011743E7500122D4F81C3802FA05F581
:103920001D43C4F81C58BDE8F081204FA5E7204F87
:10393000A3E705F13F0304EB83031E4A5A60026DBF
:10394000AB0143F02003136113699B06FCD404EB25
:1039500048180C20FDF7FCFBD8F8003923F400438D
:10396000C8F80039D4F81C38012202FA05F523EA18
:103970000503C4F81C38BDE8F08104EB481205F1DA
:10398000100ED2F800CB2CF4004CC2F800CBD4F8C7
:103990001C284FF0010C0CFA0EFE22EA0E02C4F8AD
:1039A0001C2889E7008004100080001000800810A7
:1039B00000800C1000040002AFF30080AFF3008021
:1039C0005831036D49015B5813F4004004D013F4DF
:1039D000001F0CBF02200120704700BFAFF3008022
:1039E0004831036D49015B5813F4004004D013F4CF
:1039F000001F0CBF02200120704700BFAFF3008002
:103A000000EB8101CB681B6A19685B685360116029
:103A1000704700BFAFF30080AFF30080AFF30080CA
:103A200000EB8103006DDB689A695B8A5268013A9A
:103A30001A44B2FBF3F200EB411143F0C04343EAF6
:103A4000C243C1F8103B7047AFF30080AFF3008072
:103A500000EB810310B4DA6853695B6873B1128AB2
:103A6000046D581E104404EB4111B0FBF2F243EA1E
:103A7000C243C1F810395DF8044B7047036D5DF81F
:103A8000044B03EB41114FF40023C1F81039704788
:103A9000036D03EB4111D1F8003B43F08063C1F8A3
:103AA000003B7047AFF30080AFF30080AFF30080BE
:103AB000036D03EB411210B4D2F8004944F0044402
:103AC000C2F80049D3F834285DF8044B012000FA0D
:103AD00001F11143C3F83418704700BFAFF3008001
:103AE000036D03EB4111D1F8003B43F40013C1F81F
:103AF000003B7047AFF30080AFF30080AFF300806E
:103B0000036D03EB4111D1F8003943F40013C1F800
:103B100000397047AFF30080AFF30080AFF300804F
:103B2000036D03EB4111D1F8003B23F40013C1F8FE
:103B3000003B7047AFF30080AFF30080AFF300802D
:103B4000036D03EB4111D1F8003923F40013C1F8E0
:103B500000397047AFF30080AFF30080AFF300800F
:103B600070B5114D114B124C124E4FF6FF72284694
:103B70001A80FDF775FE1049104A114BE961204685
:103B800006F124012E626962AA62EB62FDF768FE0B
:103B90000C490D4A0D4BE161A6F148010C3E216232
:103BA0006662A262E36270BDCC0D0020C80D0020E9
:103BB000FC0D0020205501080030014016000106D0
:103BC00046000106003C00401600010046000100CE
:103BD00038B503691A69DC681440A4B2E2B2D24372
:103BE0001A61A30705461BD4600714D421070DD41E
:103BF000E20606D4E30703D56B6828469B6898471E
:103C000038BD6B6828469B6A9847F3E76B6828467F
:103C10001B6A9847ECE76B6828469B699847E5E77D
:103C200043681B699847DFE7AFF30080AFF300807C
:103C300008B50648064A43686FF001019B681161A8
:103C40009847BDE80840FCF7A3BB00BF2C0E00203E
:103C500000000140AFF30080AFF30080AFF30080BD
:103C6000134B10B51A69DC681440A4B2E2B2D24317
:103C7000A0071A6117D4610710D4220709D4E306FC
:103C800003D50C4843689B6A9847BDE81040FCF791
:103C90007FBB084843681B6A9847F0E705484368BC
:103CA0009B699847E9E7034843681B699847E2E73F
:103CB000000001402C0E0020AFF30080AFF3008025
:103CC00008B50348FFF784FFBDE80840FCF760BB78
:103CD000400E0020AFF30080AFF30080AFF3008010
:103CE00008B50348FFF774FFBDE80840FCF750BB78
:103CF000540E0020AFF30080AFF30080AFF30080DC
:103D000008B50348FFF764FFBDE80840FCF740BB77
:103D1000680E0020AFF30080AFF30080AFF30080A7
:103D200008B50648064A43686FF001019B681161B7
:103D30009847BDE80840FCF72BBB00BF7C0E002075
:103D400000040140AFF30080AFF30080AFF30080C8
:103D5000134B10B51A69DC681440A4B2E2B2D24326
:103D6000A0071A6117D4610710D4220709D4E3060B
:103D700003D50C4843689B6A9847BDE81040FCF7A0
:103D800007BB084843681B6A9847F0E70548436843
:103D90009B699847E9E7034843681B699847E2E74E
:103DA000000401407C0E0020AFF30080AFF30080E0
:103DB00008B50348FFF70CFFBDE80840FCF7E8BA78
:103DC000900E0020AFF30080AFF30080AFF30080CF
:103DD0002DE9F843DFF87890DFF87880134F144E20
:103DE000144D154C4846FDF763FA144BC9F81030D2
:103DF0004046FDF75DFA4FF080433846C8F8103072
:103E0000FDF756FA0E4B3B613046FDF751FA0D4B6C
:103E100033612846FDF74CFA0B4B2B612046FDF72A
:103E200047FA0A4B2361BDE8F88300BF540E002017
:103E3000680E00207C0E0020900E00200000014043
:103E40000004004000080040000401400040014020
:103E50002C0E0020400E0020AFF30080AFF3008056
:103E60000378012B2DE9F041044600F08A80416877
:103E700003694A6B8F4E22F0FF0000221A60D8605F
:103E80001A615A639A63DA631A645A62E0680A68CC
:103E9000B4F80880CD68CF6AB0FBF2FC0CF1FF3CAF
:103EA00008F1FF3005F00F021FFA8CFC80B2012AE6
:103EB000C3F828C0D8625F6003D0022A0CBF032277
:103EC0000022D1F814C00CF00F00012851D00228B4
:103ED0004DD0CF6907F00F00012824D0022820D050
:103EE000486A00F00F00012824D0022844D0B442D0
:103EF00024D07148844221D001201A625861DA68C6
:103F00008C68096B002C0CBF144642F0010441F48C
:103F1000004100208522DC60186159641A60BDE808
:103F2000F08142F40072486A00F00F00012842F468
:103F30008072DAD142F48052B442DAD105F0F00551
:103F4000102D39D0202D35D00CF0F00CBCF1100F15
:103F500039D0BCF1200F39D007F0F007102F03D073
:103F6000202FC9D142F4006242F48062C4E742F0DB
:103F7000200242F01002ACE742F4005242F48052B8
:103F8000DAE74C4EB0423CD04C4B98424FD04C4BB1
:103F900098425ED04B4B98426DD0474B98421AD016
:103FA000494B9C4273D02369616846F668029A6166
:103FB000DA616BE742F008020CF0F00CBCF1100F74
:103FC00042F00402C5D142F04002C5E742F080024F
:103FD00042F04002C0E73D4B5A6C42F002025A6484
:103FE000596A002241F0020159622C205A62702164
:103FF000FCF73EFA2E207021FCF73AFA344BE360CE
:10400000D1E7324B5A6C42F001025A64596A0022DD
:1040100041F00101596219205A627021FCF728FA17
:104020001B207021FCF724FA294BE360B8E7274BEB
:104030001A6C42F001021A64196A002241F001016F
:1040400019621C201A627021FCF712FA214BE360FE
:10405000A6E71E4B1A6C42F002021A64196A41F07C
:104060000201002219621D201A627021FCF700FA79
:10407000184BE36097E7154B1A6C42F004021A6480
:10408000196A41F00401002219621E20ECE70F4B6F
:104090005A6C42F480325A64596A002241F48031E9
:1040A000596218205A627021FCF7E2F9094BE3606B
:1040B00079E700BF2C0E00207C0E0020400E00206F
:1040C000540E0020680E0020900E002000380240A0
:1040D000007A030A00BD0105AFF30080AFF3008052
:1040E0000378022B10B5044600D010BD294903699E
:1040F000002288421A60DA601A615A6417D0264B8F
:10410000984220D0254B984226D0254B98422CD05F
:10411000244B984232D0244B9C42E6D11820FCF725
:10412000CFF9224B5A6C22F480325A64DDE7192011
:10413000FCF7C6F91B20FCF7C3F91C4B5A6C22F0A4
:1041400001025A64E7E71C20FCF7BAF9174B1A6C16
:1041500022F001021A64DEE71D20FCF7B1F9134BCF
:104160001A6C22F002021A6410BD1E20FCF7A8F996
:104170000E4B1A6C22F004021A6410BD2C20FCF7BE
:104180009FF92E20FCF79CF9084B5A6C22F0020292
:104190005A6410BD2C0E0020400E0020540E00204A
:1041A000680E00207C0E0020900E00200038024097
:1041B00010B44468036904EBC10001F10C04006908
:1041C00003EB8404626048B10220DA6800FA01F16E
:1041D000114203D10A43C943DA6019615DF8044B07
:1041E000704700BFAFF30080AFF30080AFF30080F3
:1041F000036901F10C0203EB820200205060DA68CF
:10420000022000FA01F122EA0101D960704700BFE3
:10421000034B9A8992B242F080029A81704700BFA4
:1042200000100140AFF30080AFF30080AFF30080D7
:10423000034B9A8992B242F080029A81704700BF84
:1042400000440040AFF30080AFF30080AFF3008084
:104250002DE9F041456FB5F80C802C88A4B20646D4
:10426000E0051FFA88F846D4202383F31188A106BD
:1042700022D5371D08E0A9883046C9B2FDF7D8F825
:104280002C88A4B2A10617D52207F4D014F0080F89
:1042900014BF8021002114F0010F18BF41F020014C
:1042A000A30748BF41F040016407384648BF41F4C6
:1042B0008071FCF7E5FCDEE7002383F3118818F03A
:1042C000800F01D0220625D4630612D5202383F364
:1042D00011881021301DFCF7D3FC002383F31188D3
:1042E00028F0C0081FFA88F84FF6BF73A5F80C80B5
:1042F0002B80BDE8F081202383F311884FF40071F7
:10430000301DFCF7BDFC002383F311884FF6FF63DB
:104310002B80A9E7202383F3118806F13000FCF7F6
:1043200047FE002805DB80B2A880002383F31188B4
:10433000CAE7301D0821FCF7A3FC28F0C00343F0B6
:104340004003AB81F1E700BFAFF30080AFF3008023
:1043500008B50348FFF77CFFBDE80840FCF718B834
:10436000A40E0020AFF30080AFF30080AFF3008015
:1043700008B50348FFF76CFFBDE80840FCF708B834
:104380001C0F0020AFF30080AFF30080AFF300807C
:1043900038B5084D084C094A28460021FDF718F8A1
:1043A000074B084A6B6720460021FDF711F8064BC2
:1043B000636738BDA40E00201C0F002011420108C5
:1043C000001001403142010800440040AFF300807A
:1043D00038B5264C037A002918BF0C46012B054638
:1043E00023D06B6F224A93422FD002F58062934212
:1043F0002BD022681F49B1FBF2F292B21A81A28837
:10440000E188208942F4045241F0400442F02C0239
:1044100040F0010092B2A4B280B200211C829882C6
:104420009A8119801A889B8838BD134B984213D003
:10443000124B9842D5D1124B1A6C42F400321A64D6
:104440002620C021FCF714F8CBE722680D49B1FB08
:10445000F2F292B21A81D2E7094B5A6C42F0100282
:104460005A642520C021FCF703F8BAE7D0550108AB
:104470000010014080DE8002A40E00201C0F0020EE
:104480000038024000BD0105AFF30080AFF30080AB
:10449000FDF77EBFAFF30080AFF30080AFF3008085
:1044A000704700BFAFF30080AFF30080AFF3008030
:1044B000F0B400F10B0700F10A050C46B1FBF2F66F
:1044C00002FB161101F13003392BC8BF01F137038C
:1044D000DBB2B4FBF2F431462E4605F80139002C6C
:1044E000ECD1B91B3246014401E012F8013F00F85B
:1044F000013B8842F9D1F0BC704700BFAFF30080A8
:104500002DE9F04F89B00DF115030DF1140ACAEB36
:10451000030C029383460C461646CDF80CC0217856
:10452000621C59B125290CD0DBF8000014468568BF
:104530005846A8472178621C0029F3D109B0BDE88C
:10454000F08F61782D2903BFA178A21C01230023DD
:104550002E2900F0D180302900F0CE80202714468B
:10456000002506E03278043605EB8505217802EB5C
:104570004505A1F13002D2B2092A04F10104F3D9B0
:104580002A29EFD02E294FF000002BD001F0DF02B6
:104590004C2A34D0A1F14402342A00F2A680DFE88C
:1045A00002F09CA4A4A4A49CA4A4A4A4A49AA4A43B
:1045B000A4A4A434A4A46EA4A4A4A4A4A4A4A4A461
:1045C000A4909CA4A4A4A49CA4A4A4A4A49AA4A4D9
:1045D000A470A434A4A46E003278043600EB8000EA
:1045E00002EB400014F8011BA1F13002D2B2092AFB
:1045F000F4D92A29F0D001F0DF024C2ACAD122785E
:10460000002AC7D001341146C4E70A223168504657
:1046100004360193FFF74CFF019BCAEB000000F149
:10462000FF38D1462D1A25EAE5756BB96D425DB1AB
:1046300099F800102D2963D0DBF8002058469268C5
:10464000394690470135F7D1B8F1000F0BDBC8446C
:1046500009F1FF39DBF8002019F8011F926858466C
:104660009047C145F6D1002D3FF459AFDBF800204B
:104670005846926839469047013DF7D14FE71022DE
:10468000C4E7D6F800902D4AB9F1000F08BF914653
:1046900047F6FF7199F800200436002808BF084645
:1046A000002A46D048444A4601E0824234D051783C
:1046B00001320029F9D1C9EB020000F1FF382027AF
:1046C000B0E7039832688DF81420043600F1FF3803
:1046D0002027D146A6E7082298E73168002906F18D
:1046E00004061FDB50460A2293E703988DF8141046
:1046F00000F1FF38D14695E75178302701322EE797
:10470000302F99D1DBF8002058469268904709F184
:10471000010908F1FF388FE7C9EB000000F1FF380D
:1047200020277FE72D2249428DF814200DF1150036
:10473000D9E710464FF0FF38202773E7E05601080D
:1047400030B1012800D07047044B10221A83704703
:10475000034B4FF400421A83704700BF000C024025
:1047600000100240AFF30080AFF30080AFF3008091
:1047700030B1012800D07047044B10225A83704793
:10478000034B4FF400425A83704700BF000C0240B5
:1047900000100240AFF30080AFF30080AFF3008061
:1047A00040B1012800D07047054B5A6982F01002D1
:1047B0005A617047034B5A6982F400425A6170474C
:1047C000000C024000100240AFF30080AFF3008005
:1047D0004FF0FF30FCF74CB9AFF30080AFF300802F
:1047E00008B54AF6CD31002000F072FABFF34F8FC2
:1047F000044A054BD16801F4E0610B43D360BFF379
:104800004F8FFEE700ED00E00400FA05AFF30080F3
:1048100008B54FF0FF30FCF753FA012801D0FFF73D
:10482000DFFF00F07DFDFAE7AFF30080AFF300801B
:1048300000B583B0002300934FF4DC71044B0548AE
:10484000FF22FCF7CDF8044B186003B05DF804FBC1
:1048500011480108980F002050110020AFF300808C
:1048600008B5FCF755FCFBF77BFE00F059FB00F0A8
:1048700007FC00F0CDFB00F04BFA00F021F800F04F
:1048800047F900F025FD00F0C3FA0020FFF770FFA4
:104890000120FFF76DFF06480021FCF7B9FD054830
:1048A0000021FCF7B5FDBDE80840FFF7C1BF00BF20
:1048B000A40E00201C0F0020AFF30080AFF3008097
:1048C00010B5064C00212046FCF77AFC204604492E
:1048D000044A6423BDE81040FCF782BCE80A0020CB
:1048E000F056010854110020AFF30080AFF30080B0
:1048F000344BDA8B2DE9F04107462ABB324EB3F830
:104900000E8034684EF6EE6203F1100090450CBF45
:104910009846804634BBD8F80420D8F80850141DB7
:10492000AC42346033D25368013330D0083204E0F3
:1049300053F8044B013403D01A46AA421346F7D366
:1049400014463260104615E0D889C8B91E4E346846
:104950004EF6EE6803F11000424514BF98468046BB
:10496000002CD8D0D8F804309C420CD204331C461A
:1049700033601846236801330BD0EF20BDE8F08187
:10498000AB20BDE8F081D8F808209442EED2204652
:10499000F0E700F005FC082801D0BDE8F0813068A0
:1049A000094C0230394600F0FBFB0828F5D123689A
:1049B000D8F80410054A591A0433236022F8171056
:1049C000BDE8F08108080020D41C0020B41A0020A3
:1049D000164BDA8970B412B1DA8B22BB1033144D46
:1049E0009C6835F810205E68BAB9631EB41CA342F7
:1049F00003D815E0043BA34212D91A8892B282422E
:104A0000F8D1C6F57F46FE361E4425F8106033F80F
:104A1000023C0B80002070BC7047B41C1319E6E701
:104A2000012070BC7047AB20F5E700BF08080020EC
:104A3000B41A0020AFF30080AFF30080AFF3008022
:104A40002DE9F0412F4B82B006460D4603F5087460
:104A5000002223F8022FA342FBD12B4BDA8922B18B
:104A6000DA8BC2B903F1100700E01F46264A197815
:104A700097F8008002F11003884514BF90469846CD
:104A80004EF6EE61D8F8040000F08AFB082804D046
:104A900002B0BDE8F081AB20FAE74EF6EE6329469E
:104AA000A8F80E303046FFF723FF0828F0D1002485
:104AB000A5B2AE420DF10601E8B204F101040AD03C
:104AC000FFF786FF0128284605D0BDF80610FFF73E
:104AD0000FFF0828DCD1B4F5887FE9D1B88902211D
:104AE00000F01EFB0828D3D1FF23D8F80400FB8177
:104AF000002100F055FB0828CAD10023A8F80E3089
:104B0000C6E700BFB21A002008080020AFF30080FB
:104B10002DE9F04182B000F0BBFA6048604BD0F85C
:104B200004E04469BEF80020C2812288C28303F5F4
:104B30000871002223F8022F8B42FBD1C3894FF664
:104B4000FF72934204D04EF6EE62934200D04BB90E
:104B5000C28B4FF6FF718A420ED04EF6EE618A424A
:104B60000AD04AB180894D4C022100F0D9FA0828B8
:104B700037D002B0BDE8F0819342F3D04FF6FF7119
:104B80008B426FD08A4256D04EF6EE6293424DD0A1
:104B9000424F07F1100800244FF6FF7604E0D7F8E3
:104BA00004E0B4F5887F2ED0BEF80630A5B29BB2E3
:104BB000AB4208BFAEB233B29C420DF10601E8B27F
:104BC00004F10104EDD0FFF703FF01282846E6D0E9
:104BD000BDF80610FFF78CFE0828E0D002B0BDE853
:104BE000F081FF256068E581002100F0D9FA0828EE
:104BF000BFD10023A08BE381022100F091FA0828A5
:104C0000B7D1E583B5E77046002100F0C9FA08285E
:104C1000AFD10023B8F80C00FB81022100F080FA2C
:104C2000082804BFFF23A8F80E30A2E71D4FA646B0
:104C3000A7F11008AFE7808B184C022100F070FA42
:104C4000082896D1E2894EF6EE63FF219A42E1836D
:104C500017D16068002100F0A3FA082889D1002349
:104C6000E38186E780890D4C022100F059FA08287B
:104C70007FF47FAFE28B4EF6EE63FF219A42E18133
:104C800001D0082075E76069002100F089FA082842
:104C90007FF46FAF0023E3836BE700BF08080020B9
:104CA000B21A002018080020AFF30080AFF3008094
:104CB00038B505460C46FFF71BFEEF2800D038BD7F
:104CC00028462146BDE83840FFF7BABEAFF3008062
:104CD00000F58070FFF7ECBFAFF30080AFF300800A
:104CE00010B586B000234FF0FF348DF814108DF806
:104CF0001520014600930193029405AA022302485D
:104D0000FCF79EFA06B010BD540B0020AFF30080F4
:104D100008B5FCF775FA0A480A49FCF781FA002041
:104D200020217722FFF7DCFF002023210822FFF754
:104D3000D7FF012020218F22BDE80840FFF7D0BF18
:104D4000540B002020570108AFF30080AFF3008020
:104D5000104B2DE9F04101220F4D1A8380460024AB
:104D60004FF48066802747FA04F313EA080F4FF4E4
:104D700080736E8304F1010414BF2B836B83A8201E
:104D80002E83FCF7E5F9082CEDD1024B01225A8362
:104D9000BDE8F081000C024000000240AFF300804B
:104DA00008B5074B02225A830120FFF7D1FF44F2D6
:104DB000A010FCF7CDF90348BDE80840FCF7C8B9DE
:104DC000000C0240A0750800AFF30080AFF3008034
:104DD00008B5064B02225A830C20FFF7B9FF44F2B4
:104DE000A010BDE80840FCF7B3B900BF000C0240BA
:104DF00008B5064B02225A830820FFF7A9FF44F2A8
:104E0000A010BDE80840FCF7A3B900BF000C0240A9
:104E100038B5204B204A214C1A60012363830225B8
:104E20000F20FBF725FE65833820FFF791FF44F242
:104E3000A010FCF78DF91A48FCF78AF96583382031
:104E4000FFF786FF44F2A010FCF782F942F2D0008F
:104E5000FCF77EF965833820FFF77AFF44F2A01053
:104E6000FCF776F965833820FFF772FF44F2A01053
:104E7000FCF76EF9FFF7BCFFFFF792FF6583062092
:104E8000FFF766FF44F2A010FCF762F9BDE8384076
:104E9000FFF79EBFD81C002028080020000C02400D
:104EA000A08F0C00AFF30080AFF30080AFF3008061
:104EB0000F2808B501D8012900D908BD074B0231D8
:104EC00000EB81100222C0B25A83FFF741FF44F287
:104ED000A010BDE80840FCF73BB900BF000C024041
:104EE0000A2808B50AD0084B02221A83FFF730FFC0
:104EF00042F2D000BDE80840FCF72AB900200121A9
:104F0000BDE80840FFF7D4BF000C0240AFF30080BB
:104F100008B50846FFF7E4FF002008BDAFF30080A6
:104F200001480249FCF7CCB92C0E0020305701088B
:104F300070B51A4C06460D4620460121FCF7F0F9E3
:104F4000174B184A194692FBF6F620469E80FCF74E
:104F5000B7F92389144A03EB830303EB8303A2FB12
:104F60000312C2F34F1220460121143DFCF7C8F989
:104F7000ADB24FF47A700D4B00FB05F00138A3FB86
:104F8000002080090130FBF773FD2046FCF7A8F9EB
:104F90001420BDE87040FBF76BBD00BF400E002041
:104FA0003808002040420F001F85EB51D34D62109E
:104FB00070B5134D134EFBF7A3FE0121FBF7C0FEA6
:104FC0001148FBF7FDFD2B68002B15DD002402E0E6
:104FD0002B68A34210DD336803EB840233F824000E
:104FE000518889B2142904F1010480B2F0D9FFF785
:104FF0009FFF2B68A342EEDCFBF7F2FDDBE700BF6F
:10500000DC1C0020A81E0020E01C0020AFF3008064
:1050100000B5094883B0FBF763FD002300934FF40C
:10502000DC71064B06487F22FBF7DAFC054B186063
:1050300003B05DF804FB00BFE01C0020B14F010885
:10504000F01C0020AC1E0020AFF30080AFF3008006
:1050500008B505480549FCF733F905480549BDE899
:105060000840FCF72DB900BF680E002070570108FA
:105070007C0E0020B0570108AFF30080AFF3008032
:10508000FFF7E6BFAFF30080AFF30080AFF300801F
:10509000044B1A69002A03DA0349044A59605A602A
:1050A000704700BF003C024023016745AB89EFCD4C
:1050B0000B4BDA68D1030AD4DA68D20601D5052091
:1050C0007047DA6812F0EF0F03D006207047012016
:1050D0007047DB6813F0020F0CBF082007207047F1
:1050E000003C0240AFF30080AFF30080AFF30080DC
:1050F00000B583B008238DF80730FFF7D9FF8DF88E
:1051000007009DF80730012BF7D09DF80700C0B2CB
:1051100003B05DF804FB00BFAFF30080AFF3008085
:1051200070B5054659B301292FD0022914BF4FF499
:1051300040764FF40076FFF7DBFF082824D1144CAB
:10514000236923F44073236121690E432661236997
:1051500023F0F8032361236943F002031D43256113
:10516000236943F480332361FFF7C2FF236923F0EF
:1051700002032361236923F0F803236170BD0E4607
:10518000FFF7B6FF0828DAD070BD4FF48076F7E756
:10519000003C0240AFF30080AFF30080AFF300802B
:1051A00070B505460E46FFF7A3FF082800D070BD76
:1051B0000A4C236923F440732361236943F4807309
:1051C0002361236943F0010323612E80FFF790FFE1
:1051D000236923F00103236170BD00BF003C02403E
:1051E000022906D0032906D00748012918BF00204C
:1051F000704706487047032A03D8054800EBC200F1
:1052000070470020704700BF10590108A0590108DD
:1052100080580108AFF30080AFF30080AFF3008047
:1052200010B590F8443003F06003202B044604D0FE
:105230002046BDE81040FCF76BBA90F84530222BB1
:10524000F6D10E4B0E481A7894F84610805C01F0A7
:105250000301884206D000221A702046BDE81040A3
:10526000FCF756BA0132D2B2032A1A70E0D1054BCC
:1052700001211868FBF714FDDAE700BFC01E00200B
:105280007008002050110020AFF30080AFF30080C1
:10529000022910B5044611D1202383F3118801217E
:1052A000074AFCF76DFB20460221064AFCF768FB23
:1052B0000548FCF705FA002383F3118810BD00BFF1
:1052C000F057010830580108E41E0020AFF30080B9
:1052D00038B50D4D0D4C2846FCF77AF90C49284697
:1052E000FCF79EF9236D9A6B22F400229A630A2040
:1052F000FBF7BEFB20460749FCF71AFB236D9A6BB0
:1053000042F400229A6338BDE41E0020900B002076
:105310007058010820590108AFF30080AFF30080F6
:1053200010B5074C0748236D9A6B22F400229A634C
:10533000FCF796F92046BDE81040FCF711BB00BF12
:10534000900B0020E41E0020AFF30080AFF300803C
:105350000EB400B582B004AB1A4605480549019366
:10536000FFF7CEF802B05DF804EB03B0704700BF62
:10537000D81C0020B0590108AFF30080AFF30080C3
:10538000F0B4840743D0541E002A3ED0CDB2034669
:1053900003E0621E002C38D0144603F8015B9A0724
:1053A000F7D1032C2AD9CDB245EA05250F2C45EAC1
:1053B000054515D9A4F110073F0903F1100606EBC6
:1053C00007161A46156055609560D5601032B242D6
:1053D000F8D104F00F040137032C03EB07130DD9A8
:1053E0001E462246043A032A46F8045BFAD8221FD6
:1053F00022F003020432134404F003042CB1C9B2B6
:105400001C4403F8011BA342FBD1F0BC70471446B7
:105410000346C6E700000000000000000000000096
:1054200069646C65000000000000000000000000DE
:105430006D61696E00168211040448080C1014187E
:10544000001C1D1E1F2000000000000000000000C6
:105450007113010851130108B113010891130108D8
:10546000A113010881130108611301084113010808
:105470007115010851150108B115010891150108B0
:10548000A1150108811501086115010841150108E0
:10549000000000000000000000000000000000000C
:1054A00000000000000000000000000000000000FC
:1054B00001000000000000000000000000000000EB
:1054C000106002400860024000000B0028600240AB
:1054D0000860024006010C00406002400860024083
:1054E00010020D00586002400860024016030E00D2
:1054F000706002400C60024000040F0088600240AF
:105500000C60024006051000A06002400C600240E2
:1055100010061100B86002400C60024016072F0010
:105520001064024008640240000838002864024009
:1055300008640240060939004064024008640240E1
:10554000100A3A005864024008640240160B3B00FF
:10555000706402400C640240000C3C00886402400D
:105560000C640240060D4400A06402400C6402403A
:10557000100E4500B86402400C640240160F46004D
:105580008000000040010000030000000000000057
:105590007573625F6C6C645F70756D700000000005
:1055A00000000000911A0108B11D0108811E0108C8
:1055B00040004000B00D0020B00D002001000000B0
:1055C000C00D0020000000000000000000000000EE
:1055D00000C20100000000400000000000000000C8
:1055E000FFAA91AA00000000FFFFFFFF00020424B1
:1055F000FFFFFFFF0000505500A00A500FA0AAA413
:1056000000030000FFFFFFFF00000001FFFFFFFF9E
:1056100000000077447700AAFFAFAA020000000054
:10562000FFFFFF0300000000FFFFFFFF000000334B
:1056300033660600152900AA00000000FFFFFFFFE7
:1056400000005500FFFFFFFF00007007000022224E
:105650000040994100000000FFFFFFFF0000000034
:10566000FFFFFFFF0000000010100000000000001E
:10567000000000000000000000000000000000002A
:10568000000000000000000000000000000000001A
:10569000000000000000000000000000000000000A
:1056A000000000000000000000000000FFFFFFFFFE
:1056B00000000000FFFFFFFF0000000000000000EE
:1056C00000000000000000000000000000000000DA
:1056D00000000000000000000000000000000000CA
:1056E000286E756C6C2900000000000000000000AE
:1056F00001000C000000000000000000000000009D
:1057000000000040DBB60100DB06001B0000B0001B
:105710004BB987124304D0180000000000000000BD
:1057200001000000A0860100010000000000000050
:105730001027000001000000000000000100000030
:105740000000000001000000000000000000000058
:105750000000000000000000000000000000000049
:105760000000000000000000000000000000000039
:1057700040420F00204E0000000000000100000029
:105780000000000001000000000000000100000017
:105790000000000001000000000000000000000008
:1057A00000000000000000000000000000000000F9
:1057B00040420F00204E00000000000001000000E9
:1057C00000000000010000000000000001000000D7
:1057D00000000000010000000000000000000000C8
:1057E00000000000000000000000000000000000B9
:1057F000020000000000000051170108D117010845
:1058000040004000C41E0020D41E00200200000002
:105810000000000000000000000000000000000088
:105820000403090400000000000000000000000064
:105830000300000000000000411801080000000003
:1058400010000000B01E0020000000000100000059
:105850000000000000000000000000000000000048
:105860000803320036003200000000000000000093
:10587000900B002001010200000000000000000069
:10588000040000002058010826000000A05801086C
:1058900038000000D05801080800000060580108D6
:1058A0002603530054004D006900630072006F002E
:1058B00065006C0065006300740072006F006E008C
:1058C0006900630073000000000000000000000099
:1058D0003803430068006900620069004F0053000C
:1058E0002F0052005400200056006900720074001E
:1058F000750061006C00200043004F004D00200047
:1059000050006F00720074000000000000000000F2
:1059100012000000305901080000000000000000E3
:1059200091520108E15101082152010800000000D4
:1059300012011001020000408304405700020102DE
:105940000301000000000000000000000000000053
:1059500009024300020100C03209040000010202F2
:1059600001000524001001052401000104240202A5
:105970000524060001070582030800FF0904010051
:10598000020A00000007050102400000070581022D
:1059900040000000000000000000000000000000C7
:1059A0004300000050590108000000000000000002
:1059B00048656C6C6F20416974686F6E210000004F
:1059C00000960000000008000000000000800008B1
:1059D000FFBF00081000AAAA0100000000C00008D4
:1059E000FFFF00081800AAAA000000000000000045
:1059F000114F01080000000040420F0001000000AC
:105A00000000000000000000000000000100000095
:105A10000000000000000000000000000000000086
:105A20000000000000000000000000000000000076
:045A3000000203006D
:04000005080101905D
:00000001FF
