:020000040801F1
:1000000000040020A1010108A1030108A1030108C7
:10001000A1030108A1030108A1030108A10301082C
:10002000A1030108A1030108A1030108D1030108EC
:10003000A1030108A1030108A1030108D1040108DB
:10004000A1030108A1030108A1030108A1030108FC
:10005000A1030108A1030108A1030108A1030108EC
:10006000A1030108A1030108A1030108311F010830
:10007000611F0108911F0108C11F0108F11F01083C
:100080002120010851200108C1280108A10301080D
:10009000A1030108A1030108A1030108A1030108AC
:1000A000A1400108013F0108A1030108313F0108F7
:1000B000A13F0108C13F0108E13F0108012D0108EE
:1000C000212E0108A1030108A1030108A1030108D1
:1000D000A103010891460108B1460108A1030108E6
:1000E000A1030108A1030108A1030108A10301085C
:1000F00001400108A10301083140010881200108E5
:10010000A1030108A1030108A1030108A10301083B
:10011000A1030108A1030108A1030108A10301082B
:10012000B1200108E1200108112101084121010845
:1001300071210108A1030108A1030108A10301081D
:10014000A1030108A1030108A10301080138010866
:10015000A1210108D121010801220108A103010800
:10016000A1030108A1030108A1030108A1030108DB
:10017000A1030108A1030108A1030108A1030108CB
:08018000A1030108A10301081D
:1001900008B505F04DFD00BFAFF30080AFF3008060
:1001A00072B6704C84F309884EF63472CEF20002B7
:1001B0004EF68853CEF200034FF0404111601868AC
:1001C00040F470051D600022E1EE102A4EF63C73EB
:1001D000CEF2000306211A6081F31488BFF36F8FFB
:1001E0006148624DA84218D2EA1C051D531B23F03A
:1001F0000302034610184FF0553183421960C2F3D1
:1002000080020AD01AB185422B46296005D01D1DF7
:100210005960083383426960F9D15548A04218D229
:100220005449041D0A1B22F00305034628184FF009
:10023000553183421960C5F380020AD01AB1844255
:100240002346216005D01D1D596008338342696033
:10025000F9D104F0CDFA4849484881421BD2C61C66
:100260000C1D321B464822F00302161D05680423AC
:10027000B3420D60C2F380020DD022B1456808235D
:10028000B342256007D01A1D1D5884585D500833AD
:10029000B3428C50F7D13B483B49884217D2CB1C24
:1002A000041D1A1B22F0030503462818002183426F
:1002B0001960C5F380020AD01AB184422346216036
:1002C00005D01D1D5960083383426960F9D105F0DE
:1002D00037F82E4D2E498D421DD2CC1C2E1DA71B4A
:1002E000B808471C01242A6800EA04089047BC4269
:1002F00011D0B8F1000F05D0022433689847BC42F2
:10030000354608D0696888470234A8682E1D8047A2
:100310000835BC42F6D1FFF73BFF1E4D1E4A954201
:100320001DD2D41C2E1DA71BBB085F1C01242968ED
:1003300003EA04088847BC4211D0B8F1000F05D089
:10034000022430688047BC42354608D06A6890472E
:100350000234AB682E1D98470835BC42F6D104F034
:10036000A7FF00BF000800200000002000040020BC
:1003700000040020030800200008002018090020C5
:10038000486E010818090020602200208801010839
:10039000880101088801010888010108AFF3008085
:1003A000FEE700BFAFF30080AFF30080AFF3008043
:1003B00072B6FEE7AFF30080AFF30080AFF30080CA
:1003C00000F0D6FA00DF00BFAFF30080AFF300808B
:1003D000EFF309824EF63073CEF20003D2F8CC1060
:1003E0005960986868309860683282F30988002301
:1003F00083F31188704700BFAFF30080AFF3008034
:1004000008B54FF46D43CEF200034FF44072C0F2D2
:10041000FA524FF48031996007201021DA6000F021
:10042000C7F80A20202100F0C3F80B208021BDE886
:10043000084000F0BDB800BFAFF30080AFF300800C
:10044000202383F311884FF46D43CEF200035868E4
:1004500010F4006324D0EFF30983A3F1680282F360
:10046000098816494FF080708A6943F84C0CD07F98
:10047000096892688968B0B1914294BF0022012254
:10048000BAB10F4A43F8502CF1EE10FA4EF6307222
:10049000CEF20002516841F0010059665060704789
:1004A00083F311887047914234BF00220122002A51
:1004B000E7D1044843F8500CE8E700BFB80A002031
:1004C000C1030108C4030108AFF30080AFF300804B
:1004D00008B5202383F3118800F0CAF8002383F3C2
:1004E0001188BDE80840FFF7ABBF00BFAFF3008045
:1004F0002DE9F04F2DED108AC1F80CD0D0F80CD0BA
:10050000BDEC108ABDE8F08FAFF30080AFF3008040
:10051000002383F311882846A04700F0E1FA7047D2
:10052000F0B44FF461438408CEF20003C03400F00D
:10053000030553F82470ED00FF26420906FA05F67C
:1005400027EA060601FA05F500F01F0002F1600730
:10055000012101FA00F02E4343F8246043F82700FC
:1005600043F82200F0BC7047AFF30080AFF3008087
:1005700041094FF4614310B4CEF2000300F01F02B2
:100580002031012404FA02F4820843F82140C032E9
:1005900000F0030053F82210C000FF2404FA00F01A
:1005A00021EA000143F8221010BC7047AFF300802D
:1005B00082084FF46D43CEF20003063200F00300D0
:1005C00030B4C00053F82250FF2404FA00F425EAA6
:1005D000040401FA00F10C4343F8224030BC704798
:1005E000024B034A98698261FEE700BFB80A002007
:1005F000A0650108AFF30080AFF30080AFF3008087
:1006000000B583B0FFF7FCFE00F0DAF800F060F808
:1006100000F02EFD00F064FD40F618104021C2F2FB
:10062000000000F0B5F940F6B821C2F20001012245
:1006300088610277002383F3118862B646F2B050D6
:100640008969C0F601008861009340F6601040F2AD
:10065000E1534FF4A471C0F60103C2F2000000F0B0
:10066000F7F903B000BD00BFAFF30080AFF3008027
:1006700038B5134B9869C27F0AB1511EC177036A1E
:10068000104C5A1C0262E0682268411CA242E160E0
:1006900014D09568013D956085B91368D1685C6098
:1006A0002360D560002383F31188106988472023D5
:1006B00083F31188226890680028EED038BD00BF0F
:1006C000B80A0020A80A0020AFF30080AFF3008032
:1006D00040F6A823C2F200034FF0FF3200205B6017
:1006E0001B609A60D8607047AFF30080AFF3008062
:1006F00070B40C4E03613468C260A568A94204D985
:100700002468491BA5688D42FAD363680460B4422B
:10071000436018606060816002D0A068411AA160E7
:1007200070BC7047A80A0020AFF30080AFF30080D0
:100730000368074A934203D09968826889189960D0
:1007400042681360036800215A60C160704700BFAF
:10075000A80A0020AFF30080AFF30080AFF3008061
:10076000202383F31188037F0D2B11D8DFE803F0DA
:1007700020101007100B101010101010100B416AF1
:100780008A68531C8B6090E80C001A6001684B600B
:100790004FF0FF3242628168074B002202771B68EC
:1007A0009A688A42FBD259680360416008605860C9
:1007B000002383F311887047B80A0020AFF300804C
:1007C00040F6B823C2F2000300225B601B609A600F
:1007D0005B611B61704700BFAFF30080AFF3008027
:1007E00000228168054B02771B689A688A42FBD217
:1007F000596803604160086058607047B80A00207B
:1008000040F6B823C2F2000310B499691A68087759
:1008100014201468C87701201077104663601C60AC
:100820009A6110BCFFF764BEAFF30080AFF30080A5
:1008300030B54B1C87B0054611D00B4C0B4AA36951
:1008400001A8FFF755FF2846FFF7DAFF049B13B115
:1008500001A8FFF76DFFA069406A07B030BDFFF740
:10086000CFFF014CF7E700BFB80A0020610701087D
:10087000F0B4144F8568BE690446B0686162002315
:1008800085420CD82377394609688A689542FBD996
:1008900048682160606004604C60F0BC704733774A
:1008A000394609688A689042FBD9486831607060AF
:1008B00006604E600123204631462377BC61F0BCC0
:1008C000FFF716BEB80A0020AFF30080AFF3008038
:1008D0000E4B18689969026830B453601A608C68CE
:1008E00098610125142300220577CB770A77034608
:1008F00000E01B689A68A242FBD25A680B604A600B
:100900001160596030BCFFF7F3BD00BFB80A00208A
:100910000D4B18689969026830B453608C681A608E
:1009200001259861002305770B77034600E01B68DB
:100930009A68A242FBD85A680B604A6011605960FD
:1009400030BCFFF7D5BD00BFB80A0020AFF3008070
:10095000044B1A68986991688368994200D8704777
:10096000FFF7D6BFB80A0020AFF30080AFF30080D6
:10097000034B9869C17F09B1FFF7CABFFFF7A8BF52
:10098000B80A0020AFF30080AFF30080AFF300801F
:10099000F0B440F6B824C2F2000400226569016494
:1009A000046100F12C06816000F1280745614FF0D9
:1009B000020C60610121142480F81CC04277C477C6
:1009C000C263826302628177826128618762066303
:1009D000C662F0BC704700BFAFF30080AFF3008089
:1009E0002DE9F001643940F6B8254118C2F200053E
:1009F00000266F69C1600B64059B4B6440F2115384
:100A0000C0F601030B660221944600F1280800F1AC
:100A10002C020177142301210561C0F808C0476149
:100A2000044668614677C377C0F840C0C6638663F2
:100A30000662817786613861C0F828800263C262ED
:100A4000BDE8F001704700BFAFF30080AFF3008056
:100A500010B51C4682B0202383F311882346049CE2
:100A60000094FFF7BDFF00210446FFF701FF0023BC
:100A700083F31188204602B010BD00BFAFF30080A1
:100A800008B50146202383F311880620FFF7D0FE26
:100A9000002383F3118808BDAFF30080AFF300801B
:100AA00038B50E4B9C692546606255F8280FA84260
:100AB00006D00168A162FFF793FEA06AA842F8D1B0
:100AC000607F830704D1636922691A6121694B61E0
:100AD0000E20BDE83840FFF793BE00BFB80A0020E3
:100AE000202383F31188FFF7DBBF00BFAFF3008043
:100AF0000023406000608360704700BFAFF3008058
:100B0000F8B52F4A836894690546002B51D0A16837
:100B10009868814206D91A7F9960042A31D0052A43
:100B20001CD092B128460068854203D08368A16832
:100B30008B42F8D2426820606260446004201460F6
:100B40006562BDE8F840FFF75BBE93E80600116000
:100B5000196818464A60FFF743FEE3E758681F68C4
:100B60005E6A07601F68324678601268964202D05B
:100B700090688842F9D251681A6059600B605360DE
:100B8000D0E758681F685E6A07601F683246786061
:100B90001268964212D090688842F9D251681A6061
:100BA00059600B605360B368A1689A688A42B2D3F7
:100BB000B8E7E36B8460C360E063F8BD3246EDE7FD
:100BC000B80A0020AFF30080AFF30080AFF30080DD
:100BD00008B5202383F31188FFF792FF002383F3E6
:100BE000118808BDAFF30080AFF30080AFF3008041
:100BF000154A38B59069202383F31188C46B2568A2
:100C0000E368A542C3631CD0016C4BB11A689A42D9
:100C100003D09268914238BF1146DB68002BF5D1B2
:100C20002B68EA6B8160236028465C600021A56028
:100C3000E260EC63FFF71CFE002383F3118820467B
:100C400038BD0023A360F7E7B80A0020AFF30080A7
:100C500008B5826B037F1143082B81630BD0092BEE
:100C600000D008BD426A11408A42FAD1FFF7B8FDB0
:100C70000021416208BD436A1942F7D108BD00BF97
:100C800008B5202383F31188FFF7E2FFFFF760FE2A
:100C9000002383F3118808BDAFF30080AFF3008019
:100CA00070B50468A04205460E4608D0201D0BC84A
:100CB0003343E360FFF7CCFF2468A542F6D170BD53
:100CC00038B50B4B05469C69202383F31188A16B33
:100CD000084006D108206562FFF792FDA16B05EA86
:100CE000010021EA0001A163002383F3118838BDCC
:100CF000B80A0020AFF30080AFF30080AFF30080AC
:100D000010B5202383F311880B4CA3691A4652F8BF
:100D10002C0F904208D00168D9624A600B22002350
:100D2000027783F3118810BD0C20FFF769FDA369DA
:100D30001A4652F82C0FEEE7B80A0020AFF30080F5
:100D400008B5202383F31188FFF792FD002383F376
:100D5000118808BDAFF30080AFF30080AFF30080CF
:100D600010B4024659B1084B9B69586244680D2083
:100D700083E814005360236010BCFFF759BD4FF0A7
:100D8000FF3010BC704700BFB80A0020AFF30080EE
:100D900010B4C361019B40608A1800240060846025
:100DA00041618161C1600261036210BC704700BF94
:100DB00038B50446C368006863610021A042A3619E
:100DC000A1600AD06FF00105026822605460FFF74D
:100DD00007FD45622068A042F6D138BDAFF3008020
:100DE000426908B503468069824298681AD001308A
:100DF000986002F8011B19695A618A420BD218687F
:100E000098420DD0016819604B60FFF7E9FC0023A0
:100E10004362184608BD1868DA6898425A61F1D1F1
:100E2000002008BD0028E2D06FF0030008BD00BF1D
:100E300070B5202304460E4683F31188C36903B1BD
:100E40009847A568204631463DB9FFF789FF00283D
:100E5000F7DA2B4683F3118870BDA1692269013D41
:100E6000A56011F8010B9142A16124BFE168A16165
:100E7000002383F3118870BDAFF30080AFF30080CF
:100E80002DE9F0471E460446C769202383F31188E5
:100E90004FF0000801F1010901EB020A0FB12046F1
:100EA000B847A568204631464DB9FFF759FF0028DD
:100EB000F7D02B4683F311884046BDE8F087A3693D
:100EC000013DA56013F8012B09F8012C2069A361ED
:100ED000834224BFE368A361002383F31188D145D3
:100EE00008F10108E8D0202383F3118809F10109F2
:100EF000D4E700BFAFF30080AFF30080AFF3008012
:100F000010B4C361019B40608C1800608260416135
:100F10008161C1600461036210BC7047AFF300805F
:100F200038B50269C368044600686361D11AA042FB
:100F3000A361A1600AD06FF00105036823605C60C3
:100F4000FFF74EFC45622068A042F6D138BD00BFD5
:100F5000F8B504460F461646202383F31188A5688A
:100F6000204631463DB9FFF7FBFE0028F7DA2B4655
:100F700083F31188F8BD6369013DA56003F8017B27
:100F800022696361934228BFE368E16928BF636116
:100F900009B120468847002383F311881846F8BD1D
:100FA000826941699142034610B5806816D0441C9D
:100FB0009C6012F8014B19699A618A420BD2186839
:100FC000984206D0016819604B60FFF709FC0023C6
:100FD0004362204610BDDA689A61F0E70028E6D047
:100FE0006FF0020010BD00BFAFF30080AFF30080D0
:100FF0002DE9F0479A46044688461646D0F81C90DC
:10100000202383F311880027A56820466B1EEDB1CD
:10101000A360656918F8011B05F8011B2269656169
:10102000954224BFE2686261B9F1000F00D0C84761
:10103000002383F311880137013E10D0202383F36E
:101040001188A56820466B1E002DE1D1204651462F
:10105000FFF786FE0028D7D02B4683F31188384649
:10106000BDE8F087AFF30080AFF30080AFF30080FE
:1010700040F6D82240F6D4234CF200010648C2F2D2
:101080000002C2F20003C2F2010120F0070021F0C9
:10109000070110601960704767220020AFF30080DD
:1010A000202383F31188094B09491A68096807301E
:1010B00020F00700891A88429ABF10181860002291
:1010C000002383F311881046704700BFD80A002020
:1010D000D40A0020AFF30080AFF30080AFF30080AC
:1010E00040F6E023C2F2000341F2A1010022C0F663
:1010F000010103F1100019609A60DA60FFF7F8BC93
:1011000008B501F085F900F0D3FB46F26070C0F637
:10111000010001F07DFC00F02BF800F069F800F010
:10112000AFF800F03DF900F08BFB00F0E9FB00F0B8
:101130009FF800F03DFABDE8084003F061BB00BF36
:101140004FF48053CEF2000319465A688018824249
:101150004B6802D29A4202D970479A42F7D9984214
:1011600094BF00230123002BF1D17047AFF300801F
:1011700001F026BAAFF30080AFF30080AFF3008038
:1011800000230122027043608360C36003614361F6
:10119000704700BFAFF30080AFF30080AFF3008073
:1011A00010B52023044683F31188416001F050FA02
:1011B00002232370002383F3118810BDAFF3008056
:1011C00038B51D460446202383F31188032303709A
:1011D0008260C560016101F0ABFA002383F31188DE
:1011E00038BD00BFAFF30080AFF30080AFF30080E5
:1011F00001F096BEAFF30080AFF30080AFF3008044
:1012000001230021037041600C30FFF771BC00BF67
:1012100010B52023044683F31188416001F098FE45
:1012200002232370002383F3118810BDAFF30080E5
:1012300070B51E4684B00446202383F3118803252D
:101240000570099D00238360089B01950A9D00930A
:101250000295334601F044FF431C06D00221217061
:10126000002383F3118804B070BD05222270F7E7D4
:10127000704700BFAFF30080AFF30080AFF3008092
:1012800002F01EBFAFF30080AFF30080AFF3008029
:101290000123002103704160704700BFAFF300805D
:1012A00010B52023044683F311888B8841600381A5
:1012B00002F04EFF02202070002383F3118810BD3E
:1012C00010B52023044683F3118803F091F801231D
:1012D0002370002383F3118810BD00BFAFF300809B
:1012E00008B5202383F3118803F0FAF8002383F371
:1012F000118808BDAFF30080AFF30080AFF300802A
:1013000008B5202383F3118803F002F9002383F347
:10131000118808BDAFF30080AFF30080AFF3008009
:101320000C30FFF7ADBD00BFAFF30080AFF300801E
:101330000C304FF0FF33FFF7A3BD00BFAFF30080C9
:101340003030FFF755BE00BFAFF30080AFF3008031
:1013500030304FF0FF33FFF74BBE00BFAFF30080DC
:101360000C30FFF765BD00BFAFF30080AFF3008026
:101370000C304FF0FF31FFF75BBD00BFAFF30080D3
:101380003030FFF7E5BD00BFAFF30080AFF3008062
:1013900030304FF0FF32FFF7DBBD00BFAFF300800E
:1013A00003F096B9AFF30080AFF30080AFF3008095
:1013B00070B546F2D0530546C0F60103044645F821
:1013C000043B82B0656001250B46164604F15401CA
:1013D0001022257200F10C000094FFF7D9FC009454
:1013E00004F1300004F1640110223346FFF788FD58
:1013F00002B070BDAFF30080AFF30080AFF30080A8
:1014000010B52023044683F3118803F089F90223E1
:101410002372002383F3118810BD00BFAFF3008057
:1014200038B5436904460D463BB104F10C0029462A
:10143000FFF7D6FC00280BDB38BD04300421FFF792
:101440002FFC04F10C002946FFF7CAFC0028F3DA50
:10145000201D8021BDE83840FFF722BCAFF300809B
:1014600038B5046AD4F8542213681978042900D0D6
:1014700038BD207A0228FBD15279598903EB8203C7
:1014800041FA02F0DA6810F00103518AF0D1E569FF
:10149000A0696269281A801A8142E9D883F3118809
:1014A000D4F85422B0FBF1F301FB03F31068517937
:1014B00004F10C0200F0A4FA202383F31188D4F87D
:1014C000543218685979BDE8384000F0B9BA00BF05
:1014D00010B5046AD4F854321A681178042900D07F
:1014E00010BD207A0228FBD11B79128942FA03F140
:1014F00011F00103F4D1206CE16BA26B401A821A47
:10150000EED083F31188D4F8541213460868097991
:1015100004F1300200F084FA202383F31188D4F818
:10152000543218681979BDE8104000F0A1BA00BF24
:101530000C30FFF7A5BC00BFAFF30080AFF3008015
:101540000C304FF0FF33FFF79BBC00BFAFF30080C0
:101550003030FFF74DBD00BFAFF30080AFF3008028
:1015600030304FF0FF33FFF743BD00BFAFF30080D3
:101570000C30FFF75DBC00BFAFF30080AFF300801D
:101580000C304FF0FF31FFF753BC00BFAFF30080CA
:101590003030FFF7DDBC00BFAFF30080AFF3008059
:1015A00030304FF0FF32FFF7D3BC00BFAFF3008005
:1015B000704700BFAFF30080AFF30080AFF300804F
:1015C00030B546F2F0530546C0F60103044645F82F
:1015D000043B83B0656041F26143012504F154018D
:1015E000257200F10C004FF48072C0F601030094E4
:1015F000FFF7CEFB41F2D143009404F1300004F533
:10160000AA714FF48072C0F60103FFF779FC03B0B2
:1016100030BD00BFAFF30080AFF30080AFF30080B8
:1016200010B40A68202383F311880B7902EB83043A
:101630000023A0614C79093442F824008C7902EB34
:1016400084029061C0F854120221017283F3118860
:1016500010BC7047AFF30080AFF30080AFF30080A1
:10166000D0F8542238B504462023106883F311883B
:10167000D4F8543219794D1D00EB850200255560D0
:101680005979093140F821509B795A1D00EB8200AD
:101690000123022145602372201DFFF701FB04F1A5
:1016A0000C00FFF785FB04F13000FFF739FCFFF772
:1016B0004FF92B4683F3118838BD00BFAFF300808C
:1016C00070B5D0F8543200F10C06044630461D685F
:1016D000FFF76EFB04F13000FFF722FC201D012113
:1016E000FFF7DEFAD4F85402417905EB810228466F
:1016F000D36832465B8A00F083F9D4F854124979F2
:101700002846BDE8704000F09BB900BFAFF30080F1
:1017100090F8443003F06001202901D00020704788
:1017200090F84520212A03D0222A09D0202AF5D179
:101730000649072200238163C263036401207047C6
:1017400000238363C3630364012070470008002003
:1017500000EB810370B59C6906460D46ACB12023B1
:1017600083F311880821201DFFF79AFA216CE26BA0
:10177000A06B8B1A191A11D106EB8502D068436948
:10178000596819B9002383F3118870BD028A501E6D
:1017900010EA0103F6D183F3118803E0002383F3F9
:1017A00011880B463046294604F1300200F038F922
:1017B000202383F311883046294600F059F9E1E7E8
:1017C00001F1090370B550F823400D460646A4B157
:1017D000202383F3118804216018FFF761FA06EBD8
:1017E0008501E069CA68A1696369528A401AC11A11
:1017F0008A4203D9002383F3118870BD002383F349
:101800001188B1FBF2F302FB03F33046294604F1E1
:101810000C0200F0F5F8202383F3118830462946A6
:1018200000F00EF9E6E700BFAFF30080AFF30080F1
:10183000704700BFAFF30080AFF30080AFF30080CC
:1018400002F0E6BAAFF30080AFF30080AFF30080A0
:10185000002301220270436083600C30FFF748B917
:101860004FF48053CEF2000359688160704700BF87
:101870004FF48053CEF20003094A81685B6810B4CC
:101880001468C2685B1A191B9142816005D802690D
:10189000914238BF016110BC7047C160FBE700BFD7
:1018A000000B0020AFF30080AFF30080AFF30080A7
:1018B00010B540F6003486B0C2F200044FF48053F5
:1018C0000022CEF200034FF0FF3022600492059018
:1018D000596841F6710241F6610301A8C0F601039F
:1018E000C0F60102019302920391FFF7C1FF039832
:1018F000206006B010BD00BFAFF30080AFF30080E2
:1019000001F0FEBFAFF30080AFF30080AFF30080C3
:101910000023012202704360C36183620362C362D9
:101920004362036303814381704700BFAFF30080CC
:1019300038B50446202383F3118800254160C56033
:1019400005614561856101F0F3FF022323702B4699
:1019500083F3118838BD00BFAFF30080AFF3008080
:1019600010B52023044683F3118802F051F80123B7
:101970002370002383F3118810BD00BFAFF30080F4
:1019800070B50646506914460D4618B10021102264
:1019900004F06EFDA06918B10021102204F068FD6A
:1019A00006EB850330462946DC60BDE8704002F056
:1019B000E7B800BFAFF30080AFF30080AFF3008063
:1019C00030B400EB81040025E468A4692570E2606E
:1019D0006360A56030BC02F0A3B900BFAFF3008024
:1019E00030B400EB81040025E46864692570E2608E
:1019F0006360A56030BC02F0ABB900BFAFF30080FC
:101A000030B400EB8104E568AC6901256360002314
:101A10002570E260A36030BC02F082B9AFF30080B1
:101A200030B400EB8104E5686C6901256360002334
:101A30002570E260A36030BC02F08AB9AFF3008089
:101A400070B5448944FA01F313F001060D4601D044
:101A5000012070BD012303FA01F52C43448102F0FB
:101A600097F9304670BD00BFAFF30080AFF3008040
:101A700070B5048944FA01F313F001060D4601D054
:101A8000012070BD012303FA01F52C43048102F00B
:101A900087F9304670BD00BFAFF30080AFF3008020
:101AA00010B40346002202240470A0F84C2083F8EE
:101AB0004E2080F84F2002814281C2600261426163
:101AC000826183F8342010BC01F0B2BFAFF3008014
:101AD000F8B50446002380F8343000F1440202F0E7
:101AE0000FF96068816841B32046884728B3E56BE9
:101AF00094F8443094F84B1094F84A2042EA0120BC
:101B0000A8423CBF0546E06313F0800F2B467DD111
:101B1000002D68D1052184F83410204629462A4634
:101B2000FFF75EFF202383F3118820462946FFF745
:101B30009FFF2B4683F31188F8BD94F8443013F0CF
:101B4000600711D00021204602F04AF9204600210A
:101B500002F03EF963681A6812B1204605219047E9
:101B6000062084F83400F8BD94F8456003F07F0245
:101B700042EA0626B6F5407F00F0F98016DDB6F59C
:101B8000C06F00F0898068DDB6F5106F00F0B4809A
:101B900040F60242964278D0B6F5006FD2D10125C8
:101BA00004F14F00A063E5632764A3E7022E00F071
:101BB000B58065DDB6F5807F00F08780B6F5817F62
:101BC000C0D194F846100029BCD194F8485015F0C3
:101BD0000F0150D02A06204600F1FA8002F008F9E1
:101BE00094F8443047E0042284F834202046002151
:101BF000A26BFFF7E5FE202383F311880021204626
:101C0000FFF71EFF002383F31188F8BD95B1012172
:101C100084F8341020460021A26BFFF7E1FE202358
:101C200083F3118800212046FFF722FF002383F36E
:101C30001188F8BD032084F83400294620462A463E
:101C4000FFF7BEFE202383F3118820462946FFF7C5
:101C5000F7FE2B4683F31188F8BD40F2023086422E
:101C600073D0B6F5A06F7FF46DAFB4F84410B1F542
:101C7000A06F00F09B800025A563E563256439E72C
:101C8000002E32D0012E7FF45DAF5649022500228E
:101C9000A163E56322642DE7606894F8496094F8D5
:101CA0004830456894F8471094F84620204643EAA7
:101CB0000623A84700283FF445AF4168056894F81B
:101CC0004430A163E563276414E794F84620012AB1
:101CD0007FF438AFB4F84C00A76320F00201A4F8F9
:101CE0004C10E76327643D4604E7022504F14C00ED
:101CF000A063E5632664FDE694F8465084F84F50EF
:101D0000002D44D10321217062681568002DB2D0E6
:101D100020460221A84794F84430ACE794F84830B4
:101D200013F0800F204603F00F0133D101F0C8FFFC
:101D3000012833D002287FF405AF2B4DE063A56363
:101D4000276494F844300546D4E694F846100029F8
:101D50007FF4F8AE94F8485015F00F018BD02B06A5
:101D600020463AD402F034F894F8443083E794F8EB
:101D70004620012A7FF4E6AEB4F84C50A76345F044
:101D80000200A4F84C00E76327643D46B2E6042055
:101D90002070B9E701F0A4FF0128CBD1134AE66314
:101DA000A263276494F844303546A3E694F846309D
:101DB000204684F84E3001F0D3FE65682A6812B1DF
:101DC000204601219047032094F84430207052E7C8
:101DD00002F016F894F844304DE702F001F894F858
:101DE000443048E7106601082066010830660108A3
:101DF00038B590F83430022B044624D0052B36D069
:101E0000012B10D0002101F0EBFF2046002101F052
:101E1000DFFF6068026812B1204605219047062165
:101E200084F8341038BD90F84B1090F84A30C26BEB
:101E300043EA0121914206D9C5682B8AB2FBF3F12E
:101E400003FB1125D5B1002103200B4684F8340093
:101E50000A462046FFF7B4FD202383F311880021B2
:101E60002046FFF7EDFD002383F3118838BD026C97
:101E700002B19047002384F8343038BD2B46294600
:101E80002A46FFF7ADFD202383F31188204629461B
:101E9000FFF7EEFD2B4683F31188022084F834000F
:101EA00038BD00BFAFF30080AFF30080AFF3008018
:101EB00090F83430032B10B5044626D0042B11D0F3
:101EC0000021204601F08CFF2046002101F080FF18
:101ED00063681A6812B1204605219047062184F8EC
:101EE000341010BD002105220B4680F834200A462C
:101EF000FFF776FD202383F3118800212046FFF7AA
:101F0000B7FD002383F3118810BDC1688B699A68FF
:101F1000002AD5D1016C01B18847002084F8340033
:101F200010BD00BFAFF30080AFF30080AFF30080BF
:101F300008B54FF4C043C4F20203064819680268AA
:101F400001F03D0199600AB140689047BDE8084042
:101F5000FEF776BA040B0020AFF30080AFF30080E9
:101F60004FF4C043C4F2020307481968826810B5F1
:101F70008C0904F03D018C019C600AB1C068904757
:101F8000BDE81040FEF75CBA040B0020AFF3008000
:101F90004FF4C043C4F2020307481968026910B540
:101FA0000C0C04F03D010C049C600AB140699047A0
:101FB000BDE81040FEF744BA040B0020AFF30080E8
:101FC0004FF4C043C4F2020307481968826910B590
:101FD0008C0D04F03D018C059C600AB1C0699047EE
:101FE000BDE81040FEF72CBA040B0020AFF30080D0
:101FF00008B54FF4C043C4F2020306485968026AA8
:1020000001F03D01D9600AB1406A9047BDE808403F
:10201000FEF716BA040B0020AFF30080AFF3008088
:102020004FF4C043C4F2020307485968826A10B5EE
:102030008C0904F03D018C01DC600AB1C06A904754
:10204000BDE81040FEF7FCB9040B0020AFF30080A0
:102050004FF4C043C4F2020307485968026B10B53D
:102060000C0C04F03D010C04DC600AB1406B90479D
:10207000BDE81040FEF7E4B9040B0020AFF3008088
:102080004FF4C043C4F2020307485968826B10B58D
:102090008C0D04F03D018C05DC600AB1C06B9047EB
:1020A000BDE81040FEF7CCB9040B0020AFF3008070
:1020B00008B54FF4C843C4F2020306481968026C1D
:1020C00001F03D0199600AB1406C9047BDE80840BD
:1020D000FEF7B6B9040B0020AFF30080AFF3008029
:1020E0004FF4C843C4F2020307481968826C10B564
:1020F0008C0904F03D018C019C600AB1C06C9047D2
:10210000BDE81040FEF79CB9040B0020AFF300803F
:102110004FF4C843C4F2020307481968026D10B5B2
:102120000C0C04F03D010C049C600AB1406D90471A
:10213000BDE81040FEF784B9040B0020AFF3008027
:102140004FF4C843C4F2020307481968826D10B502
:102150008C0D04F03D018C059C600AB1C06D904768
:10216000BDE81040FEF76CB9040B0020AFF300800F
:1021700008B54FF4C843C4F2020306485968026E1A
:1021800001F03D01D9600AB1406E9047BDE80840BA
:10219000FEF756B9040B0020AFF30080AFF30080C8
:1021A0004FF4C843C4F2020307485968826E10B561
:1021B0008C0904F03D018C01DC600AB1C06E9047CF
:1021C000BDE81040FEF73CB9040B0020AFF30080DF
:1021D0004FF4C843C4F2020307485968026F10B5B0
:1021E0000C0C04F03D010C04DC600AB1406F904718
:1021F000BDE81040FEF724B9040B0020AFF30080C7
:102200004FF4C843C4F2020307485968826F10B5FF
:102210008C0D04F03D018C05DC600AB1C06F904765
:10222000BDE81040FEF70CB9040B0020AFF30080AE
:102230002DE9F00F40F684358AB0C2F2000546F26F
:1022400040400295783046F21045C4F20205A0F5F0
:1022500080600495C4F2020046F240450390C4F247
:10226000020546F228400695C4F2020046F2704587
:102270000590C4F2020546F258400195C4F20200EE
:1022800046F2B8450790C4F2020546F28840099527
:10229000C4F20200029D089046F2100B002040F6A6
:1022A000043346F2280A46F2400946F2580846F23C
:1022B000700C46F2880746F2A006C2F200032860BE
:1022C000C4F2020B039DCBF80000C4F2020AC4F270
:1022D0000209C4F20208C4F2020CC4F20207C4F2FA
:1022E00002061860CAF800009860C9F8000018617A
:1022F000C8F800009861CCF8000018623860986255
:10230000306018632860049D98632860059D1864F8
:102310002860069D98642860079D186546F2104461
:1023200028606034019D986530342860C4F202044E
:10233000089D18664FF4C0414FF4C8422860C4F2AB
:1023400002019866C4F202022060099C18674FF0EF
:10235000FF35206098678D60CD609560D5600AB0CC
:10236000BDE8F00F704700BFAFF30080AFF300800F
:102370002DE9F041244E447A3768012505FA04FC22
:102380001CEA070F3AD1214D4CEA070705EBC408B8
:1023900017F0FF0F45F83420C8F80430376007D035
:1023A0004FF46053C4F202031C6B44F400161E6326
:1023B00017F47F4F19D10468266826F01F052560A1
:1023C000276817F00105FBD1067A43683D2707FA15
:1023D00006F61E6021232560636192B1807A0901AF
:1023E000FEF79EF82846BDE8F0814FF46055C4F230
:1023F00002052F6B47F480032B63DCE72846BDE81A
:10240000F0811046BDE8F081840B0020040B002011
:102410004FF46053C4F2020370B400224FF0FF3453
:1024200019691C611A6159695C615A611E6A4EF230
:10243000100166F080561E62CEF200011A6249F267
:102440003F054EF6F0505E6A5C62CEF20000072453
:10245000C0F202055A624D608A600C60C4684FF495
:102460008051CEF2000144F08074C460086840F0EE
:1024700001000860186C4FF4E041C4F2000140F024
:1024800080501864086840F480700860196F01F487
:102490004070B0F5007F03D04FF4803119671A67A0
:1024A0004FF4E043C4F200035A6822F4007058600D
:1024B00070BCFFF7BDBE00BFAFF30080AFF300807C
:1024C0004FF460514FF4E043C4F20201C4F2000340
:1024D0004FF080524FF440400A6418600B6843F09C
:1024E00001020A6008684FF460538007C4F20203D7
:1024F000F8D5196801F0F90200211A6018469960B0
:1025000082684FF4605312F00C0FC4F20203F7D14B
:10251000186840F480311960184602684FF460531F
:102520009203C4F20203F8D5596F41F001005867D5
:1025300019464A6F4FF460539007C4F20203F8D56E
:1025400045F20840C0F24070586019684FF4E0420C
:1025500041F080701860C4F2000253685904FCD541
:102560004FF46051C4F202010A684FF460509201C6
:10257000C4F20200F8D54FF47053C4F202034FF4D2
:102580001441C3F6080140F2057281601A60836845
:1025900043F002018160826802F00C014FF4605345
:1025A0000829C4F20203F6D1586C40F480425A6400
:1025B000596E41F480405866704700BFAFF3008009
:1025C000F8B540F68836C2F20006304640F6AC3523
:1025D000FEF7D6FDC2F200051A4F4FF4005242F644
:1025E0001643C4F20102C0F20203284640F6D0347A
:1025F000C2F20004B261F7613362FEF7C1FD4FF42D
:10260000045242F61643A7F11801C4F20102C0F2C7
:1026100002232046AA61E9612B62FEF7B1FD4FF467
:10262000085242F61643C4F20102243FC0F20243AC
:1026300012206021A261E7612362BDE8F840FDF746
:102640006FBF00BFD0660108AFF30080AFF300801A
:102650000378012B10B5044600D010BD2D488442EC
:1026600016D02D498C4229D02C4A94423CD04FF4AC
:102670000C52C4F20102A369516801F4400040F415
:102680008030506000210122596099609A6010BD2D
:10269000234AE06906212346FFF76AFEE06942F219
:1026A0004C0201684FF46053C4F20203C4F2010209
:1026B0008A60586C40F480725A64D8E7184AE0691E
:1026C00006212346FFF754FEE16942F24C120868E6
:1026D0004FF46053C4F20203C4F201028260596CE9
:1026E00041F400725A64C2E70D4AE06906212346AC
:1026F000FFF73EFEE36942F24C2019684FF4605345
:10270000C4F20203C4F2010088605A6C42F4806093
:102710005864ACE7880B0020AC0B0020D00B0020E5
:10272000E1270108AFF30080AFF30080AFF3008032
:102730000369026A19782DE9F003C46829B1012CF4
:1027400094BF42F4807242F48472C5695E8829683D
:102750008768D3F80CC0CF6006FB04F44C600A60B5
:10276000D1F80090D3F814809F69DE691D6A5C6A15
:102770001B69826949F00109C1F800904CF0806042
:10278000002113F0804F43F4407340F4807014BF75
:1027900043F0030343F001031160C2F80C8017619A
:1027A000D6621563546350609360BDE8F0037047D0
:1027B000C1690A68136810B423F01F041460136819
:1027C00013F00103FBD10C7A826949683D2000FABD
:1027D00004F00860536093600123936010BC70475D
:1027E00011F00C0F38B504461DD10369D3B18A0628
:1027F00010D51D78002D3BD05D689DB1C268012ABF
:1028000033D959888368520801FB02F103EB410177
:10281000A84738BDCA0605D55B681BB1C268816888
:102820005208984738BDFFF7C3FF206983683BB162
:10283000052200212270204698472178052911D0D1
:1028400000222261202383F31188636933B14FF0A2
:10285000FF31626118465962FDF7C2FF002383F31E
:10286000118838BD02202070EAE78168A84738BD8A
:10287000FFF79EFF20694368CBB1042222702046F7
:10288000A168E2689847207804280CD0202383F3BD
:10289000118861690029E1D00022626108464A621C
:1028A000FDF79EFFDAE7022323702561EEE70221A0
:1028B00021702361EAE700BFAFF30080AFF300802F
:1028C0004FF40053C4F2010300211A6810B51960D7
:1028D000930605D54B4CE06903685A68002A64D119
:1028E0004FF40450C4F20100002302680360900614
:1028F00005D5454CE16908684268002A32D14FF499
:102900000850C4F20100002302680360910625D537
:102910003E4CE1690868426802B32369F3B120467E
:10292000FFF746FF21698B683BB10520207001212C
:10293000204698472278052A5AD000222261202377
:1029400083F31188606930B14FF0FF332F49436240
:102950004A61FDF745FF002383F31188BDE810406D
:10296000FDF76EBD2369002BC9D02046FFF720FF7D
:1029700021698B683BB105202070012120469847D2
:102980002278052A3AD000222261202383F311887D
:10299000606930B14FF0FF331B4943624A61FDF774
:1029A0001FFF002383F31188A9E72169002997D02D
:1029B0002046FFF7FDFE206983683BB10522012117
:1029C0002270204698472178052914D000222261E0
:1029D000202383F31188606930B14FF0FF33094938
:1029E00043624A61FDF7FCFE002383F3118877E719
:1029F00002212170A1E702202070E7E70221217067
:102A0000C1E700BF880B0020AC0B0020D00B0020DA
:102A10004FF46053C4F202031A6B6FEA52216FEA5B
:102A200041221A63196D6FEA51226FEA422119653A
:102A300000234168C4F202034FF480625960816848
:102A40009960C168D96001695961416919628169F8
:102A5000596201681960016AC4F202024FF400630E
:102A60005160416A9160816AD160C16A5161016BB4
:102A70001162416B5162C1691160C4F20203C26B01
:102A80005A60016C9960426CDA60816C5961C26C69
:102A90001A62016D5962816B4FF440621960816D59
:102AA000C4F202024FF480535160C16D9160016E17
:102AB000D160416E5161816E1162C16E5162416D92
:102AC0001160C4F20203426F5A60816F9960C26F55
:102AD000DA60D0F880105961D0F884201A62D0F8FA
:102AE00088105962016F4FF4A0521960D0F890100D
:102AF000C4F202024FF4C0535160D0F894109160B8
:102B0000D0F89810D160D0F89C105161D0F8A01086
:102B10001162D0F8A4105162D0F88C101160D0F876
:102B2000AC10C4F202034FF4E0525960D0F8B01078
:102B30009960D0F8B410D960D0F8B8105961D0F8C5
:102B4000BC101962D0F8C0105962D0F8A810C4F2B5
:102B500002021960D0F8C8305360D0F8CC109160F0
:102B6000D0F8D030D360D0F8D4105161D0F8D8303C
:102B70001362D0F8DC105162D0F8C4104FF4005347
:102B80001160D0F8E420C4F202035A60D0F8E810D3
:102B90009960D0F8EC20DA60D0F8F0105961D0F8E4
:102BA000F4201A62D0F8F8105962D0F8E0001860EA
:102BB000704700BFAFF30080AFF30080AFF3008039
:102BC00030B4046B436B226800214FF400451D8034
:102BD000198099809982116821F01F03136015688C
:102BE000E907FCD4C16A257A63680A683D2000FAC7
:102BF00005F01860136823F01F0010601368DB07EE
:102C0000FCD40A7A48683D2101FA02F3036030BC23
:102C1000704700BFAFF30080AFF30080AFF30080D8
:102C200038B50546202383F31188C4694CB1FFF7FA
:102C3000C7FF00234FF0FF31EB6120466162FDF7D3
:102C4000CFFD002383F3118838BD00BFAFF30080B0
:102C500011F00C0F38B50546446B14D1296B0A6886
:102C6000136823F01F0010601368D807FCD40A7A99
:102C700048683D2101FA02F30360A28890B240F453
:102C80000071A18038BDFDF793FBE7E7AFF300804B
:102C900011F00C0F38B50546446B2ED1E86A026876
:102CA000136823F01F011160136813F00101FBD1B9
:102CB000027A43683D2000FA02F21A60A38823F4E6
:102CC00080500204130CA380208820F48062130437
:102CD000180C2080228893B243F4007020802023B7
:102CE00083F31188EA6922B1E96110465162FDF768
:102CF00077FD002383F3118838BDFDF759FBCDE73D
:102D0000464A38B5546B238BA58AADB2082145EAF3
:102D1000034020F07F43C0F203018B426ED011D9F3
:102D20008220C0F2070083424ED08421C0F2070106
:102D30008B422CD015F00A0F18BF238BBDE838400A
:102D4000FDF77EBB0120C0F20300834249D002217F
:102D5000C0F203018B42EDD1A388D26A23F4007044
:102D6000010412680B0CA380106840F0010111608F
:102D7000A38898B240F48051A1805368012BD9D820
:102D8000228822F480631804030C2380D2E7D36ADC
:102D900018684168002936D1A38823F40070030421
:102DA000180CA080238898B240F40073238020235D
:102DB00083F31188D06918B14162D161FDF710FD2C
:102DC000002383F31188B5E7A388126B23F4007006
:102DD000010412680B0CA380106840F0010313601B
:102DE000A8E7138C190A0CD003F0010242F0F0039B
:102DF00001F0060043EA000121829BE7118CC1F338
:102E00004703238296E72088118C83B241F00100AA
:102E100043F4A0611084218090E700BFF40B0020F0
:102E20003C48F8B5446B066BA18A326889B201F45C
:102E30005F4383F47F4585F0FF07A782136823F083
:102E40001F0515601768FF07FCD4377AC56A7368D9
:102E50002A683D2606FA07F61E60136823F01F064F
:102E600016601368DE07FCD42E7A6A6801F480735A
:102E70003D2505FA06F59BB2156003B1012301F467
:102E8000007292B2836012B143F00203836001F4D6
:102E9000806292B26AB1A28822F400721204120C0B
:102EA000A280228892B242F4007243F0040322808E
:102EB000836001F4006292B212B143F008038360B0
:102EC00001F4804292B212B143F02003836001F416
:102ED000805292B212B143F0100383600A0404D40A
:102EE00033B9BDE8F840FDF7ABBA43F0400181606B
:102EF000202383F31188C06938B16FF00102054BBC
:102F000042620021D961FDF76BFC002383F3118835
:102F1000E7E700BFF40B0020AFF30080AFF30080C1
:102F200010B540F6F434C2F200042046FEF768F90A
:102F300046F24063C0F601034FF4A842C4F2000217
:102F400003F148010020E0616263E362216310BD88
:102F5000F8B50378044640F256428262012B40F2F3
:102F600016406062656B55D02A46E66A276B366864
:102F70003868616805F11003B36000244FF400471E
:102F80004FF4106683602F802C80AE809388486851
:102F90000F7A23F03F0633041E0C9680968848F281
:102FA000A063B6B2C0F2010346F02A0698429680AA
:102FB00024DD4FF4D453C0F20603984208DC022FFC
:102FC00074D0032F62D048F6FF700D23138400E005
:102FD0002046908309781088022983B250D00329B3
:102FE0004BD0012903D123F00A031804030C1380EA
:102FF0002A8890B240F001032B80F8BD4DF6806323
:103000004000C0F2802393FBF0F318052B23000D42
:103010001384DEE72C498C42A6D14FF46056C4F2EB
:103020000206E06A376A294A47F400130027336230
:10303000052137622346FFF79BF92346244A206B7C
:103040000521FFF795F9306C40F4001232641F201F
:103050005021FDF765FA20205021FDF761FA616AE1
:10306000A66A626B41F0007746F0007347F4403087
:1030700043F440316062A16277E743F00A03B6E7A8
:103080004FF6F771194041F00203B0E700EB800002
:103090004DF6806300EB8000C0F2802393FBF0F3D9
:1030A0006FEA83406FEA904398B28EE74DF68063F3
:1030B00000EB4000C0F2802393FBF0F36FEA434043
:1030C0006FEA504398B280E7F40B0020912C01087E
:1030D000512C0108AFF30080AFF30080AFF3008004
:1030E0002DE9F04687B09146109D446B6A1C064658
:1030F0008A461F4605D001A82946334A3346FDF7C4
:10310000F7FA002383F31188F16A326B08681268BA
:10311000716AB360B36A4FEA4A0AA6F820A0136046
:10312000C2F80C90576001600E9A0F99C26041601E
:1031300002E0002383F31188208B00F0020291B299
:10314000202321B9208800F4007291B259B183F391
:1031500011886B1CEDD004980028EAD14FF0FF30A5
:1031600007B0BDE8F08683F31188681C1AD0049973
:103170000029F3D0A388154D98B240F40072A280C4
:103180002188AB6988B240F4807222800220F3610A
:10319000FDF736FB049911B101A8FDF7C9FAAB6937
:1031A000586ADDE7A388094D98B240F40072A28006
:1031B0002188AB6988B240F4807222800220F361DA
:1031C000FDF71EFBEBE700BF212C0108B80A002029
:1031D000416D036D00222DE9F00110468F684FF01C
:1031E000804C4FF0FF3617E0585055015C1902F142
:1031F00058014901C4F81009C4F8086953F801805E
:10320000B8F1000F17DB58505D190132BA42C5F80A
:10321000100BC5F8086B15D802F1480461015D5820
:10322000002DE1DA550143F801C05C19D4F8081902
:103230008907FBD5DAE743F801C0D4F8081BC906B3
:10324000FBD5E1E74FF00110C3F81C08BDE8F00121
:10325000704700BFAFF30080AFF30080AFF3008092
:10326000F8B5056D05EB41130646D3F8084BC3F8D6
:10327000084B23070F4603D5D5F81428120715D499
:10328000E30703D5D5F81408C00700D4F8BD06EB52
:1032900087027189D368012000FA07F021EA000251
:1032A0007281DB68304639469847F8BD00EB8103F0
:1032B000DA6853689847E3E7AFF30080AFF3008024
:1032C000026D890141F02003136110698106FCD46D
:1032D0000C20FDF735BF00BFAFF30080AFF30080D7
:1032E0002DE9F04F40F6B821C2F20001D0F850A00D
:1032F0008A698346914887B02023906183F31188BF
:103300004FF000089BF80030012B06D0DBF85C4042
:103310009CB9DAF81450E8060FD440F6B827C2F288
:103320000007DAF81860B96946F01002CAF81820E8
:103330000220CBF86410FDF763FA002383F31188B1
:103340001C46DAF8140010F010073AD0DBF85000F1
:10335000016A01F4F015B5F5802F47D0B5F5402F7F
:10336000EFD101F00F070BEB8702C1F30A16D36808
:10337000F11C8D081F6AE4D000F580506A1E0368B6
:10338000114647F8043B02F001060123002AD8D079
:103390002EB105680023511E47F8045BD1D00268A6
:1033A00013B147F8042B013B0139066813B147F804
:1033B000046B013B0139F2D1DAF8140010F0100768
:1033C000C4D10125DBF85C30A5401D42049540F0D6
:1033D000B78001340594DBF85420059B9068DCB27B
:1033E0008442AED9202383F311888BE701F00F07C5
:1033F00002370BEB8705C1F30A166A6891690B78EF
:10340000002B3BD10D1D2CCD0332D31AF21C9B088F
:10341000920829D000F5805002F1FF3909F0010C23
:10342000AE46D0F800901BB1AE46013B4EF8049B6F
:10343000013A19D0BCF1000F07D0D0F800C013B189
:103440004EF804CB013B013A0ED08946016813B116
:103450004EF8041B013B013A016813B14EF8041BFE
:10346000013B013AF2D14946AD19CD600BEB87071C
:1034700078688569A9688E19AE6062E700F58050AA
:10348000CD68002E40D03346A446032B696907D986
:103490002C69A14204D3EC68032B6C616969F7D8ED
:1034A000026801F8012B2C696961A14224BFE96817
:1034B0006961012B27D0D5F814E0110A0EF8011B21
:1034C0002C69C5F814E0A64524BFEC686C61022B9A
:1034D00019D0D5F81490110C09F8011B2C69C5F806
:1034E0001490A14524BFEC686C61032B0BD0696973
:1034F000120E01F8012B2C696961A14224BFEC680E
:103500006C61043BC1D16446202383F31188A96810
:1035100028688A19A842AA6009D003682B605D60F8
:10352000FDF75EF9C0F824802868A842F5D1FDF7C0
:103530000FFA002383F3118898E700BF1067010892
:10354000202383F31188DAF80860DBF85C10049814
:1035500026F0010221EA0005CAF808203B46CBF814
:103560005C5083F31188A71C0BEB87035D686869C7
:1035700082684668964240F2FA80DBF850102D8A45
:1035800067010297CF19B61AD7F81829B54228BF94
:10359000354697B20134B5EB870F059447D826031B
:1035A000019603930378002B57D1019FEA1C5FEA31
:1035B000920E01EB0704C7681ED03A460EF1FF36A3
:1035C00052F804CB334606F00109019E043241F85B
:1035D00006C08BB1B9F1000F05D052F8041C0432BB
:1035E000013B216008D052F8046C266052F8041B9D
:1035F0000432023B2160F6D17C19C4600398446810
:10360000606986684268AB199A42836040F2B18073
:10361000029DDBF85010248A4F19D51AD7F8186983
:10362000A54228BF2546B2B2B5EB820FBAD9002019
:10363000202383F31188DAF8081041F00104CAF856
:10364000084030B9DAF83458049F47EA0506CAF84A
:103650003468002383F31188BDE6019AC468891891
:10366000002D35D020692A46AE4697084BD0A56973
:10367000431B48BF03339B109F4238BF3B464FEA72
:10368000830CCCEB0202DBB12E465F1E56F8049B86
:103690003B46C1F8009007F0010704367BB12FB11B
:1036A00056F8047C0436013B0F6008D056F8047CC1
:1036B0000F6056F8047B0436023B0F60F6D1654478
:1036C000A842A5611DD8E668A661002ACDD175463D
:1036D000202383F31188A16820684F19A042A760B6
:1036E00009D0036823605C60FDF77AF8C0F8248095
:1036F0002068A042F5D1FDF72BF9002383F3118850
:103700007CE7002AE3D0A66916F8013BB042A66127
:103710009CBFE668A661012A27D0A76917F8015B5C
:10372000B842A7619CBFE768A761022A43EA052364
:103730001BD0A76917F8016BB842A7619CBFE76867
:10374000A761032A43EA06430FD0A56915F8017B58
:103750008542A56124BFE568A561043A43EA076391
:1037600003D00B60002A80D1B1E70022F9E7631C87
:10377000059301205CE700BFAFF30080AFF300804A
:10378000F8B5056D05EB41130646D3F80849C3F8B3
:103790000849E3070F4603D5D5F81028D2071FD4F0
:1037A000230606D50121D5F8340801FA07F70742A8
:1037B00000D1F8BD202383F31188F36DD5F83428A8
:1037C000706E3B4322EA0707F365C5F8347818B1F9
:1037D000FDF706F800207066002383F31188F8BD1A
:1037E00000EB8103B0F808E0DB68012202FA01F285
:1037F0002EEA020202819B689847D1E7AFF300806E
:1038000070B53E4E356D6B69AC691C40E1046C616E
:103810002BD4A20448BFD5F80838230704D5706814
:10382000C16809B135488847E00629D46103D5F855
:10383000185807D5EA0749D4AB074DD4680751D4C7
:10384000290755D4220307D5EB0332D4A80336D475
:10385000690327D42A0303D4BDE87040FCF7F0BD08
:1038600026480321FFF7FCFCF6E73046FEF718F97F
:1038700073681B68002BCCD0304600219847C8E7FE
:10388000202383F31188AA69706E22F01003AB61C4
:1038900020B1FCF7A5FF194900204866002383F3F7
:1038A0001188C3E702211548FFF7DAFC2A03D3D5B4
:1038B000D6E712480021FFF7D3FCA803C8D50121A1
:1038C0000E48FFF7CDFC6903C4D5EBE700210B4898
:1038D000FFF756FFAB07B1D508480121FFF750FFAE
:1038E0006807ADD502210548FFF74AFF2907A9D58A
:1038F00002480321FFF744FFA4E700BF300C00207B
:1039000010B540F63044C2F200042046FEF700F83D
:1039100046F2007100234FF0A040C0F6010123667B
:1039200063662065616510BDAFF30080AFF3008072
:1039300070B50378056D012B82B0064601D002B048
:1039400070BD314886424CD0316E0024F4650029A8
:103950003BD04FF4A2500323C4F20000C0F2202356
:1039600000224FF45021E860346DC5F80038202063
:10397000C5F8002EA963FDF7E3FB01202061236950
:10398000D807FCD40C20FDF7DBFB2269002AFCDA07
:1039900000243046AC60FFF71BFC7168C5F8104886
:1039A000C868C5F81448C5F81C4850B143F208036C
:1039B000AB614FF0FF316961A86840F00103AB6073
:1039C000BDE74FF44052AA61F3E7009606F16800A4
:1039D0004FF4DC7102220D4BFDF702F87066306681
:1039E000B7E74FF46051C4F202014A6B42F0800421
:1039F0004C634B69002243F0800048614A614320D8
:103A0000E021FCF78DFD9FE7300C0020E13201083A
:103A100038B50378056D012B044607D0FFF7D8FBB6
:103A20000020E065C5F81C08A860A86338BD00BF89
:103A30002DE9F84F80460021046DFFF741FCD8F8CE
:103A400054B0DBF808A04FF00061FF22C4F8001961
:103A50000AF00106C4F8001B0123C4F80829C4F8C1
:103A6000082BBAF1000F33D066B102235345C4F8D6
:103A7000201904F51267C4F8201BC4F82829C4F8DB
:103A8000282B25D85F1C03F1480903F1580003F1E6
:103A9000490C03F1590E04EB431604EB47154001A2
:103AA0004FEA49194FEA4C1C4FEA4E1E0233534568
:103AB00044F809102150C6F80829C6F8082B44F824
:103AC0000C1044F80E10C5F80829C5F8082BD9D9F0
:103AD000DBF80030D8F850204FF0FF314FF00116DE
:103AE0001025C4F81818C4F81C68C8F85830636268
:103AF0001561106910F01005FBD10C20FDF720FBBB
:103B0000D4F80038D8F8581023F4FE62C4F800281E
:103B1000A66946F44020092240F01006A66148F24A
:103B20004003C4F81028C4F814280B4AC1F200035B
:103B300001F1100041F48011C8F80C20C4F8105BAA
:103B4000C4F8003BC4F81059C4F80039C8F858004C
:103B5000A162BDE8F88F00BF20670108AFF30080C5
:103B6000036D90F84E10D3F8002822F4FE6040EA6E
:103B70000111C3F800187047AFF30080AFF3008065
:103B80002DE9F0418F1C00EB870306465B68046D4E
:103B90001A6802F0030002280D464FF4004854D082
:103BA000032855D04146C1F20001C1F204080128A2
:103BB00018BF88466A01A0180021C0F8101BD868F9
:103BC000002848D0588A05F15801490148EA000008
:103BD00060504FF0010CD4F81C0805F110010CFAEC
:103BE00001F10143C4F81C18A21899680020C2F81A
:103BF0001009002942D09A8B198A8B08012A88BFA4
:103C00005343B26D05F13F0004EB80019818B06595
:103C100042EA0343304606EB87064B602946FFF72E
:103C20004FFB7268108A05F148014B0140EA85514B
:103C300041EA0802E2500123D4F81C0803FA05F512
:103C40000543C4F81C58BDE8F081C1F20808B1E78B
:103C5000C1F20C08AEE705F15801490105F1100E5B
:103C6000605820F4004060500121D4F81C0801FA8B
:103C70000EF120EA0100C4F81C08B5E705F13F0386
:103C800004EB83024FF48061C0F2002151603046A2
:103C90002946FFF715FB05F148004301E25822F4DD
:103CA0000041E1500123D4F81C0803FA05F520EA8D
:103CB0000505C4F81C58BDE8F08100BFAFF30080D3
:103CC0005831036D49015A5812F4004004D012F4DF
:103CD000001F0CBF02200120704700BFAFF300801F
:103CE0004831036D49015A5812F4004004D012F4CF
:103CF000001F0CBF02200120704700BFAFF30080FF
:103D000000EB8101CB68186A016843681160536059
:103D1000704700BFAFF30080AFF30080AFF30080C7
:103D200000EB810310B4DC68006DA269638A5468FB
:103D3000621ED41800EB411143F0C042B4FBF3F310
:103D400042EAC340C1F8100B10BC7047AFF30080CB
:103D500000EB810310B4DA6853695B686BB1128AB7
:103D6000006D5C1EA418B4FBF2F200EB411143EAB3
:103D7000C243C1F8103910BC7047006D00EB41120E
:103D80004FF40021C2F81019F5E700BFAFF300802F
:103D90005831036D49015A5842F0806058507047BD
:103DA00001F14802036D5201985840F004409850C8
:103DB0000120D3F8342800FA01F11143C3F8341874
:103DC000704700BFAFF30080AFF30080AFF3008017
:103DD0005831036D49015A5842F400105850704749
:103DE0004831036D49015A5842F400105850704749
:103DF0005831036D49015A5822F400105850704749
:103E00004831036D49015A5822F400105850704748
:103E1000F8B540F6686340F66C65C2F20005C2F280
:103E20000003194E4FF6FF72284640F69C64C2F21A
:103E300000041A80FDF70CFD4FF440511622462372
:103E4000C4F20101C0F20162C0F2016306F124076D
:103E50002046E9612E62AA62EB626F62FDF7F8FC10
:103E60004FF4705116224623A6F14800C4F2000117
:103E70000C3EC0F20102C0F20103E1612062666201
:103E8000A262E362F8BD00BFA0660108AFF3008044
:103E900038B503691A69DC681440A4B2E1B204F0D1
:103EA0000202C94392B2054619610ABB04F004003C
:103EB00082B2C2B904F0080082B27AB904F01000EC
:103EC00082B232B9E30703D56A68284693689847F7
:103ED00038BD6B682846996A8847F3E76B682846BF
:103EE000196A8847EAE76B68284699698847E1E7D5
:103EF000436819698847D9E7AFF30080AFF30080C2
:103F000040F6CC60C2F2000008B500234268C4F25B
:103F100001036FF00101196193689847BDE80840FB
:103F2000FCF78EBAAFF30080AFF30080AFF30080F0
:103F30000023C4F2010310B51A69DC681440A4B26E
:103F4000E1B204F00200C94382B21961002A1DD116
:103F500004F0040082B2A2B904F0080082B25AB997
:103F600004F01004A4B21CB10B484268936A98474D
:103F7000BDE81040FCF764BA07484368196A8847EF
:103F8000EEE70548436899698847E5E702484368D2
:103F900019698847DCE700BFCC0E0020AFF3008032
:103FA00008B540F6E060C2F20000FFF771FFBDE81F
:103FB0000840FCF745BA00BFAFF30080AFF30080C4
:103FC00008B540F6F460C2F20000FFF761FFBDE8FB
:103FD0000840FCF735BA00BFAFF30080AFF30080B4
:103FE00008B540F60870C2F20000FFF751FFBDE8C7
:103FF0000840FCF725BA00BFAFF30080AFF30080A4
:1040000040F61C70C2F2000008B54FF480634268AD
:10401000C4F201036FF00101196193689847BDE88C
:104020000840FCF70DBA00BFAFF30080AFF300808B
:104030004FF48063C4F2010310B51A69DC681440C0
:10404000A4B2E1B204F00200C94382B21961002AAD
:104050001DD104F0040082B2A2B904F0080082B2BB
:104060005AB904F01004A4B21CB10B484268936A18
:104070009847BDE81040FCF7E3B907484368196A60
:104080008847EEE70448436899698847E5E70248AE
:10409000436819698847DCE71C0F0020AFF30080F4
:1040A00008B540F63070C2F20000FFF7F1FEBDE83F
:1040B0000840FCF7C5B900BFAFF30080AFF3008044
:1040C00070B540F6CC64C2F20004204640F6E066CB
:1040D000FDF7DEF8C2F20006002340F6F465C4F2F4
:1040E00001033046C2F200052361FDF7D1F840F626
:1040F00008744FF0804128463161C2F20004FDF798
:10410000C7F84FF48062C4F20002204640F61C76E5
:104110002A61C2F20006FDF7BBF84FF40063C4F257
:104120000003304640F63075C2F200052361FDF70A
:10413000AFF84FF48061C4F2010128463161FDF708
:10414000A7F84FF48040C4F20100286170BD00BFA1
:104150000378012B2DE9F041044600F08D80416881
:104160000369486B9A4E002220F0FF051A60DD605B
:104170001A615A639A63DA631A645A62E0680A68D9
:10418000B4F80880CD68B0FBF2FC0CF1FF3080B2CF
:10419000986208F1FF3705F00F02C86ABFB2012A22
:1041A000DF62586003D0022A0CBF03220022D1F83C
:1041B00014C00CF00F07012F2BD0022F27D0CF698E
:1041C00007F00F0001282BD0022850D0486A00F0D9
:1041D0000F0001282BD0022844D0B4422BD07D48B8
:1041E000844228D001201A625861D8688C680A6B12
:1041F000002C0CBF014640F00101D96042F40040A0
:10420000852100221A6158641960BDE8F08142F0EE
:104210002002CF6907F00F00012842F01002D3D12D
:1042200042F48072486A00F00F000128D3D142F4B2
:104230008052B442D3D105F0F005102D38D0202D96
:1042400034D00CF0F004102C37D0202C33D007F0F1
:10425000F007102F03D0202FC4D142F4006242F4A3
:104260008062BFE742F4005242F48052E1E742F438
:10427000007242F48072D5E7554EB0423CD0564FA2
:10428000B84255D0554988426AD0554B98427FD0A4
:104290005048844214D05348844200F089802369F6
:1042A000616846F668079F61DF6167E742F00802D0
:1042B00042F00402C5E742F0800242F04002C6E745
:1042C0004FF46055C4F202052C206A6C42F00207DC
:1042D0006F64696A002241F002036B6270216A62B6
:1042E000FCF71EF92E207021FCF71AF94FF4F44068
:1042F000C0F60320E060D2E74FF46053C4F202033B
:104300000025586C40F0010159645A6A42F00107D7
:104310005F6219205D627021FCF702F91B20702199
:10432000FCF7FEF84FF4F443C0F60323E360B2E772
:104330004FF46055C4F202050027286C40F00101DB
:1043400029642B6A43F001022A622F624FF43D4533
:104350001C207021C0F20155FCF7E2F8E5609AE7F5
:104360004FF46055C4F202050027286C40F00201AA
:1043700029642B6A43F002022A621D202F627021F9
:10438000FCF7CEF84FF43D40C0F20150E06086E704
:104390004FF46055C4F202051E202F6C47F0040153
:1043A00029642B6A002743F004022A622F62E6E7A1
:1043B0004FF46051C4F2020118204A6C42F4803775
:1043C0004F644D6A002245F480334B624A62D6E75F
:1043D000CC0E00201C0F0020E00E0020F40E002068
:1043E000080F0020300F0020AFF30080AFF30080F3
:1043F0000378022B10B5044600D010BD3249006985
:1044000000228C420260C260026142641AD02F4BCB
:104410009C4226D02E4884422FD02E4A944238D037
:104420002D498C4241D02D4A9442E6D11820FCF708
:104430009FF84FF46053C4F20203586C20F48031AB
:104440005964DAE71920FCF793F81B20FCF790F881
:104450004FF46053C4F20203586C20F00101596418
:10446000E1E71C20FCF784F84FF46050C4F202002E
:10447000016C21F001020264D5E71D20FCF778F8F9
:104480004FF46051C4F202010A6C22F002030B6483
:1044900010BD1E20FCF76CF84FF46051C4F202010D
:1044A0000B6C23F00400086410BD2C20FCF760F8AE
:1044B0002E20FCF75DF84FF46053C4F20203586CF1
:1044C00020F002025A6410BDCC0E0020E00E002045
:1044D000F40E0020080F00201C0F0020300F0020D9
:1044E00010B44468036904EBC10001F10C0403EB50
:1044F00084040069626048B10220DA6800FA01F1C0
:10450000114203D10A43C843DA60186110BC7047F6
:10451000036901F10C0203EB820200205060DA68AB
:10452000022000FA01F122EA0102DA60704700BFBE
:104530004FF48053C4F201039A8990B240F0800195
:1045400099817047AFF30080AFF30080AFF3008034
:104550004FF48843C4F200039A8990B240F080017E
:1045600099817047AFF30080AFF30080AFF3008014
:104570002DE9F041456FB5F80C802C88A4B204F405
:104580008073064698B21FFA88F8002853D120237A
:1045900083F3118823409AB252B3371D0AE0A988E9
:1045A0003046C9B2FCF73CFF288884B204F02003EF
:1045B0009AB2EAB12307F2D004F0080398B204F0EB
:1045C0000202002814BF8021002193B214F0010FD1
:1045D00004F00404384618BF41F02001A2B20BB128
:1045E00041F040010AB141F48071FCF759FBD6E774
:1045F000002383F3118808F0800188B218B104F019
:1046000080039AB232BB04F04004A4B28CB12023E0
:1046100083F311881021301DFCF742FB002383F344
:1046200011884FF63F7208EA02014FF6BF70A98168
:104630002880BDE8F081202383F311884FF40071B6
:10464000301DFCF72DFB002383F311884FF6FF612B
:1046500029809CE7202383F3118806F13000FCF7C2
:104660009FFC002805DB81B2A980002383F3118819
:10467000C9E7301D0821FCF713FB28F0C00040F00B
:104680004003AB81F1E700BFAFF30080AFF30080E0
:1046900008B540F64470C2F20000FFF769FFBDE8BC
:1046A0000840FBF7CDBE00BFAFF30080AFF3008042
:1046B00008B540F6BC70C2F20000FFF759FFBDE834
:1046C0000840FBF7BDBE00BFAFF30080AFF3008032
:1046D00038B540F64475C2F2000544F2315228461E
:1046E0000021C0F6010240F6BC74FCF761FEC2F284
:1046F00000044FF4805344F25152C4F201032046A7
:104700000021C0F601026B67FCF752FE4FF48840AF
:10471000C4F20000606738BDAFF30080AFF30080E3
:1047200038B5037A2D4C002918BF0C46012B0546DD
:104730002BD04FF480506B6F2168C4F2010083428C
:1047400036D04FF4A052C4F20102934230D04DF65D
:104750008060C0F28020B0FBF1F18AB21A81A28899
:10476000E088218942F4045240F0400080B241F0D8
:10477000010142F02C02188292B289B20020998283
:104780009A8118801A889B8838BD1548854218D0B0
:1047900014498D42CDD14FF46053C4F20203262058
:1047A0001A6C42F400311964C021FBF7B9FEC0E76E
:1047B0004FF43D40C0F20150B0FBF1F18AB21A81D2
:1047C000CDE74FF46053C4F2020325205A6C42F047
:1047D00010015964C021FBF7A3FEAAE75067010846
:1047E000440F0020BC0F0020AFF30080AFF3008027
:1047F000FDF766BEAFF30080AFF30080AFF300803B
:10480000704700BFAFF30080AFF30080AFF30080CC
:10481000F0B400F10B0C074600F10A050C46B1FBA1
:10482000F2F602FB161101F13003392BC8BF01F17A
:104830003703DBB2B4FBF2F42846314605F8013900
:10484000002CECD1C0EB0C020146B818FA438218D8
:10485000D2070AD507F8013B11F8013F05E011F82E
:10486000013F7B7011F8013F571C3A4602F8013BAB
:104870008242F4D1F0BC7047AFF30080AFF3008008
:104880002DE9F04F89B005AB0DF1150C0546C3EBD2
:104890000C000293CDF804C00C4616460390274640
:1048A00017F8011B59B125290CD02B683C46274627
:1048B00028469A68904717F8011B0029F3D109B0E0
:1048C000BDE8F08F63782D2B00F07C814FF000095C
:1048D0002E2B00F05E81302B00F05B814FF0200822
:1048E0003C46002706E03178043607EB870723783B
:1048F00001EB4707A3F13002D1B201340929F4D901
:104900002A2BF0D02E2B00F0498100216C2B00F0D7
:1049100039814C2B00F03681A3F14400342800F299
:104920002A81DFE810F01A01280128012801280156
:104930001A0128012801280128012801180128014D
:104940002801280128012801160128012801090150
:10495000280128012801280128012801280128010F
:1049600028012801CD001A01280128012801280169
:104970001A0128012801280128012801180128010D
:104980002801280135002801160128012801090104
:10499000326846F6600AC0F6010A002A18BF92463D
:1049A00047F6FF709AF800300436002908BF014628
:1049B000002B00F01F810AEB01009AF801306FEA2A
:1049C0000A010A1802F001010AF1010BD3B1834573
:1049D0005B4617D079B19BF801300BF1010B8BB11D
:1049E00083455B4607D10DE09BF801100BF1010BED
:1049F00041B1834506D003F1010B59785A46531C47
:104A00000029F1D1CAEB0B0BCBEB07074FF02008C5
:104A100027EAE777B9F1000F63D0BBF1000F27DD7C
:104A2000D146286819F8011B8368D3446FEA0A0A43
:104A30000BEB0A02284602F0010A9847D94517D025
:104A4000BAF1000F03D0286819F8011B0BE02868A1
:104A5000CA4682681AF8011B28469047286899F8C8
:104A600001100AF10109836828469847D945EED11B
:104A7000002F3FF414AF29687B1E8A681F46284622
:104A8000414603F001099047002F3FF408AFB9F108
:104A9000000F07D0296828468B6841469847013F98
:104AA0003FF4FDAE28684146826828469047296851
:104AB000013F8B68284641469847013FF2D1EEE618
:104AC0003068DDF80CB08DF8140004364FF0200883
:104AD0000DF1140ACBEB070727EAE777B9F1000FCE
:104AE0009BD17F42002F98D09AF800102D296ED0CC
:104AF000296828468A6841466FEA070990470137C6
:104B000009F0010989D0B9F1000F07D02B682846B8
:104B10009A684146904701373FF47FAF2868414685
:104B2000836828469847296801378A68284641469D
:104B300090470137F2D170E71022316805A8FFF7DE
:104B400067FEDDF808C004360DF1140ACCEB000B4B
:104B5000C0E70A22F1E70822EFE7316804360029AE
:104B600041DB05A80A22FFF753FE029B0DF1140A50
:104B7000C3EB000BAEE78DF81430DDF80CB00DF18F
:104B8000140AA7E72278002A3FF4C6AE0134134680
:104B9000C2E67B784FF030080137A1E620460021BD
:104BA00005E03278043601EB810402EB440110F891
:104BB000013BA3F13004E2B2092A0446F3D92A2BBF
:104BC000EFD0A3E6A71CA3784FF0010980E6B8F167
:104BD000300F8DD12A682846936898470AF1010A58
:104BE0000BF1FF3B84E72D228DF8142049420DF193
:104BF0001500B7E79B464FF020086BE7AFF3008046
:104C00004FF47053C4F202031A69002A09DA40F221
:104C1000231148F6AB10C4F26751CCF6EF5059603F
:104C200058607047AFF30080AFF30080AFF30080AF
:104C30004FF47053C4F20203DA68D1030AD4D8687F
:104C4000C20601D505207047D96811F0EF0F03D0D7
:104C50000620704701207047DB6813F0020F0CBF7D
:104C600008200720704700BFAFF30080AFF300803B
:104C700000B583B008238DF80730FFF7D9FF8DF812
:104C800007009DF807000128F7D09DF8070003B042
:104C900000BD00BFAFF30080AFF30080AFF3008032
:104CA00070B505460E46FFF7E3FF082800D070BD3B
:104CB0004FF47054C4F20204236923F4407020615D
:104CC000216941F480722261236943F0010020616F
:104CD0002E80FFF7CDFF216921F00102226170BD16
:104CE00070B5054600292ED0012932D0022914BF03
:104CF0004FF440764FF40076FFF7BAFF082827D12B
:104D00004FF47054C4F20204236923F4407020610C
:104D100021690E432661226922F0F803236120698C
:104D200040F002010D432561226942F48033236182
:104D3000FFF79EFF216921F002022261236923F01F
:104D4000F801216170BD0E46FFF792FF0828D7D009
:104D500070BD4FF48076F7E7AFF30080AFF30080CB
:104D6000022906D0032906D00748012918BF0020D0
:104D7000704706487047032A03D8054800EBC20075
:104D800070470020704700BFE0690108206A0108F1
:104D900050690108AFF30080AFF30080AFF30080EB
:104DA00038B590F84430044603F06000202804D061
:104DB0002046BDE83840FCF7ABBC94F845102229EA
:104DC000F6D10F4A0F48137894F84610C55C01F0ED
:104DD00003018D4209D0002BEAD0C01810F8010C55
:104DE000884205D000231370E2E7591CCBB2137040
:104DF000032BDDD1044A01211068FBF741FFD7E7FF
:104E00004410002008080020601E0020AFF300803E
:104E1000022938B50C46054611D1202383F31188A9
:104E20000121074AFCF7ACFD28462146054AFCF75C
:104E3000A7FD0548FCF744FC002383F3118838BD27
:104E4000706801080069010868100020AFF3008055
:104E500038B541F26805C2F20005284640F63044F4
:104E6000FCF7AEFBC2F2000446F64011C0F60101A9
:104E70002846FCF7D5FB236D9A6B22F40021996339
:104E80000A20FBF7FDFD46F6F0112046C0F60101B1
:104E9000FCF74EFD206D836B43F40022826338BD26
:104EA00010B540F63044C2F20004236D9A6B22F430
:104EB0000020986341F26800C2F20000FCF7D0FBCA
:104EC0002046BDE81040FCF74BBD00BFAFF30080AB
:104ED0004FF440620023C4F2020200F08001C4F2E9
:104EE000020370B504464FF480660120CDB21083F2
:104EF0005E834FF48072002D40F08D805A83002530
:104F0000C4F202054FF480662E83A820FCF718F93E
:104F100004F04003D9B26E83002940F092804FF430
:104F2000807068830025C4F202054FF480662E83EA
:104F3000A820FCF705F904F02003D9B26E830029FC
:104F40007BD14FF4807068830025C4F202054FF4D2
:104F500080662E83A820FCF7F3F804F01003D9B282
:104F60006E83002965D14FF4807068830025C4F2F8
:104F700002054FF480662E83A820FCF7E1F804F0C8
:104F80000803D9B26E8300294FD14FF48070688333
:104F90000025C4F202054FF480662E83A820FCF79A
:104FA000CFF804F00403D9B26E83002939D14FF44D
:104FB000807068830025C4F202054FF480662E835A
:104FC000A820FCF7BDF804F00203D9B26E8321BB20
:104FD0004FF4807068830025C4F202054FF48066A8
:104FE000A8202E83FCF7ACF8E2074FF480736E83A1
:104FF0004CBF2B836B830021C4F202014FF480600D
:105000000883A820FCF79CF84FF44063C4F2020325
:1050100001225A8370BD1A8371E74FF480722A838C
:10502000D9E74FF480722A83C4E74FF480722A8351
:10503000AEE74FF480722A8398E74FF480722A8398
:1050400082E74FF480722A836CE700BFAFF30080E1
:1050500008B54FF44063C4F2020302221A83FFF73B
:1050600037FF42F2D000BDE80840FCF769B800BF46
:1050700008B54FF44063C4F2020302225A83FFF7DB
:1050800027FF44F2A010BDE80840FCF759B800BF64
:1050900008B50120FFF7ECFF47F2A050C0F208006E
:1050A000BDE80840FCF74CB8AFF30080AFF30080D8
:1050B0000C20FFF7DDBF00BFAFF30080AFF300802F
:1050C0000820FFF7D5BF00BFAFF30080AFF300802B
:1050D00008B541F24033C2F200034FF4406240F69B
:1050E0001C01C4F20202C2F20001196001235383C1
:1050F0000F20FBF7C5FC3820FFF7BAFF48F6A07079
:10510000C0F20C00FCF71CF83820FFF7B1FF42F2A8
:10511000D000FCF715F83820FFF7AAFF3820FFF77A
:10512000A7FFFFF7CDFFFFF7B3FF0620FFF7A0FFB4
:10513000BDE80840FFF7BCBFAFF30080AFF30080CD
:105140000F2801D8012900D97047023100EB8110E6
:10515000C0B2FFF78DBF00BFAFF30080AFF3008098
:105160000A2801D0FFF774BFC020FFF781BF00BF3E
:10517000084608B5FFF7F4FF002008BDAFF3008034
:1051800040F60C03C2F2000318607047AFF30080D2
:1051900040F61003C2F2000301221A60704700BFFC
:1051A00040F61003C2F2000302221A60704700BFEB
:1051B0002DE9F0030578002D2AD01A4F0646002469
:1051C0003D5516F8015F0134002DF9D1E61CB446B7
:1051D00004F1010904F1020820253D5507F80950A2
:1051E000114C07F8085010F80C0026600F4CB85509
:1051F0002160D0180E491028C8BFC2F110030A6000
:105200000C4A13600C4B01201860BDE8F003704796
:105210000326044F4FF002084FF00109B4462C4614
:10522000DAE700BFC4120020C01200203C130020A7
:10523000281300201808002014080020AFF3008075
:1052400010B540F68834C2F2000420460021FBF776
:10525000A7FF46F6302141F244322046C0F6010154
:10526000C2F200026423BDE81040FBF7A9BF00BFF3
:1052700010B40D4A002302EB40001A4603F1180156
:10528000C45A415A30331219B3F5166F0A44F5D196
:1052900048F21F53C5F2EB1383FB0210D117C1EB89
:1052A000501290B210BC704744130020AFF300803E
:1052B0004FF0FF30FBF7E4BBAFF30080AFF30080AB
:1052C00008B54AF6CD31002000F012FCBFF34F8F35
:1052D0004FF46D42CEF200020423D168C0F2FA53BB
:1052E00001F4E0600343D360BFF34F8FFEE700BFDC
:1052F00008B54FF0FF30FBF7E3FC012801D0FFF7C2
:10530000DFFFFFF7CDFDFAE7AFF30080AFF30080DA
:1053100000B583B00023009341F6A84045F2F12385
:105320004FF4DC71C2F20000FF22C0F60103FBF76C
:105330008FFB41F66061C2F20001086003B000BD5E
:1053400008B5FBF7DDFEFBF75BF900F0D9FB00F0D9
:105350003FF800F065F900F083F8FFF771FF00F007
:105360004FFAFFF775FDFFF7B3FE002000F0B0F82D
:10537000012000F0ADF840F644700021C2F20000B8
:10538000FCF73EF840F6BC70C2F200000021FCF7CA
:1053900037F8BDE80840FFF7BBBF00BFAFF30080A0
:1053A00008B540F6087046F66021C2F20000C0F66B
:1053B0000101FBF775FF40F61C7046F6A021C2F212
:1053C0000000C0F60101BDE80840FBF769BF00BF5F
:1053D000FFF7E6BFAFF30080AFF30080AFF30080CC
:1053E000032810B4034611D9072801DD10BC70470B
:1053F00001EB81014C00031F04F2EE244FF6FE7214
:105400000948D9B2224010BCFBF76ABF01EB81000A
:10541000420002F2EE2405484FF6FE72D9B2224055
:1054200010BCFBF75DBF00BF1C0F0020080F002061
:1054300010B586B004464FF0FF300023029040F6CE
:10544000F4308DF814108DF8152000930193214647
:1054500005AA0223C2F20000FBF7EAFE06B010BD67
:1054600008B5FBF7C5FE40F6F43046F6E021C2F27F
:105470000000C0F60101FBF7CBFE002020217722BF
:10548000FFF7D6FF002023210822FFF7D1FF0120DC
:1054900020218F22BDE80840FFF7CABFAFF300808C
:1054A00040F67003C2F2000340F62C0253F82010BD
:1054B000C2F20002096952F8200021FA00F303F059
:1054C00001007047AFF30080AFF30080AFF30080BE
:1054D00048B1012800D070474FF44063C4F2020382
:1054E00010225A8370474FF48050C4F202004FF4E8
:1054F00000414183704700BFAFF30080AFF30080ED
:1055000048B94FF44062C4F202021369C3F3802029
:1055100080F001007047012801D0002070474FF44F
:105520004063C4F202031869C0F3C02181F0010096
:10553000704700BFAFF30080AFF30080AFF300808F
:10554000142970B50C46064600D870BD1D4D0121CA
:105550002846FBF7D5FE1C4B44F24022C0F20F0256
:1055600092FBF6F6284619469E80FBF799FE28899D
:1055700048F21F5100EB800303EB8302C5F2EB11ED
:10558000A1FB0210C0F34F1201212846143CFBF787
:10559000A7FEA4B24FF47A7101FB04F244F6D35390
:1055A000501EC1F26203A3FB00218A09501CFBF7C5
:1055B00067FA2846FBF784FE1420BDE87040FBF72D
:1055C0005FBA00BFE00E0020B4080020AFF30080F7
:1055D00070B50F4D0F4EFBF793FB0121FBF7B0FBAE
:1055E0000D48FBF7F5FA2B680024002B0DDD306821
:1055F00000EB840230F82430518898B289B2FFF76A
:105600009FFF28680134A042F1DCFBF7F1FAE2E7E2
:10561000641E002030200020681E0020AFF30080B0
:1056200000B541F6686083B0C2F20000FBF760FA93
:105630000023009341F6786045F2D1534FF4DC71BA
:10564000C2F200007F22C0F60103FBF701FA42F22A
:105650003401C2F20001086003B000BDAFF3008066
:105660000448C38923B1C18B1030002918BF002022
:10567000704700BFEC080020AFF30080AFF300805C
:10568000384BDA8B2DE9F0418046002A32D1DE8991
:1056900003F110004EF6EE6296420CBF1F4607461D
:1056A000314E3368002B2BD17A68BD68131DAB4295
:1056B00033602AD25468601C27D002F10803E81A2C
:1056C000C41C600712D5AB421ED218680C320130E0
:1056D0001AD01346AB421A4616D252F8044B013484
:1056E00012D010681346421C0ED00433AB421A4647
:1056F000F3D309E0D88978B1AB242046BDE8F08126
:105700007C68A34211D2231D33601A68013210D085
:10571000EF242046BDE8F08103F110044EF6EE6759
:10572000BA4214BF1F462746BAE7B8688342ECD393
:10573000E9E71846FFF7B4FA08280446DDD13168D6
:10574000094D881C4146FFF7ABFA082801D00446F2
:10575000D3E728687B68054AC11A043022F818107C
:105760002860CAE7EC0800205822002038200020DA
:1057700070B504460D46FFF773FF002837D01D4E65
:10578000826836F8143041680BBB531E881C834274
:105790001BD91A8892B2A2421CD0C243D218520717
:1057A00010D5043B834210D91A8892B2A24209D183
:1057B00010E01A8892B2A2420CD033F8042D92B2B3
:1057C000A24207D0043B8342F3D8012070BD881C5D
:1057D0001B18DCE74FF6FE70CFF6FF70411ACA18AF
:1057E00026F8142033F8023C00202B8070BDAB203B
:1057F00070BD00BF38200020AFF30080AFF3008001
:105800002DE9F04383B0FFF7FBF97048704B456812
:10581000D0F814E02E88B6B2C681BEF80070BFB2D0
:10582000C78303F5087400219A1C59800433A342EE
:105830005180F9D14FF6FF74A64204D04EF6EE61C6
:105840008E4200D046B94FF6FF72974210D04EF606
:10585000EE639F420CD05FB1022180895B4DFFF760
:105860003FFA0828044650D0204603B0BDE8F08334
:10587000BE42F1D04FF6FF74A64200F08380A742EB
:1058800068D04EF6EE6086425ED0DFF8408108F1C7
:10589000100900244FF6FF7616E032B294420FD082
:1058A000E0B20DF10601FFF763FF012806D038468C
:1058B000BDF80610FFF7E4FE08282ED1D8F80450F2
:1058C0000134B4F5887F2AD0E988A7B28AB2BA42F7
:1058D00008BFBEB233B29C420FD0E0B20DF1060158
:1058E000FFF746FF012806D03846BDF80610FFF73F
:1058F000C7FE082811D1D8F80450E8880134A7B2AF
:1059000081B2B942C9D1BEB2C7E7FF26002168689B
:10591000EE81FFF7C5F9082844D00446A4E700212A
:105920002846FFF7BDF90828F7D100230221B9F86E
:105930000C00A8F80E30FFF7D3F90828EDD1FF21AD
:10594000A9F80E1004468FE7DFF888807546A8F1A5
:1059500010099EE70221808B1C4DFFF7C1F9082832
:10596000DBD1E8894EF6EE64FF22A042EA8317D12C
:1059700000216868FFF794F90828CED10023EB8155
:10598000044671E702218089104DFFF7A9F9082824
:10599000C3D1E98B4EF6EE62FF209142E8810BD035
:1059A000082461E700230221A88BEB81FFF798F917
:1059B0000828B2D1EE8357E700216869FFF770F934
:1059C0000828AAD10024EC8304464DE7EC08002007
:1059D00036200020FC080020AFF30080AFF30080E9
:1059E0002DE9F043384B83B00646884603F5087529
:1059F00000249A1C5C800433AB425480F9D1FFF739
:105A00002FFE0746B0B1314D90F800902A464EF671
:105A1000EE6112F8100B814514BFA9469146D9F8E2
:105A20000400FFF73DF90828054605D0284603B0D5
:105A3000BDE8F083AB25F9E74EF6EE61A9F80E104C
:105A400030464146FFF71CFE082801D00546EDE729
:105A50000024B4420DF10601E0B20AD0FFF788FE3F
:105A60000128204605D0BDF80610FFF709FE0828DA
:105A7000ECD10134A4B2B4420DF10601E0B20AD077
:105A8000FFF776FE0128204605D0BDF80610FFF787
:105A9000F7FD0828DAD1631C9CB2B4F5887FD8D111
:105AA0000221B889FFF71CF90828CFD1FF22002175
:105AB000FA81D9F80400FFF7F3F80828C6D10020CE
:105AC000A9F80E00B2E700BF36200020EC08002045
:105AD00038B505460C46FFF7D3FDEF2800D038BD9A
